:100000000C947C000C94A6000C94A6000C94A60002
:100010000C94A6000C94A6000C94A6000C94A600C8
:100020000C94A6000C94A6000C94A6000C94A600B8
:100030000C94A6000C94A6000C94A6000C94A600A8
:100040000C94A6000C94A6000C94A6000C94A60098
:100050000C94A6000C94A6000C94A6000C94A60088
:100060000C94A6000C94A6000C94A6000C94A60078
:100070000C94A6000C94A6000C94A6000C94A60068
:100080000C94A6000C94A6000C94A6000C94A60058
:100090000C94A6000C94A6000C94A6000C94A60048
:1000A0000C94A6000C94A6000C94A6000C94A60038
:1000B0000C94A6000C94A6000C94A6000C94A60028
:1000C0000C94A6000C94A6000C94A6000C94A60018
:1000D0000C94A6000C94B4010C94A6000C94A600F9
:1000E0000C94A6000C94A6000C94A6000C94A600F8
:1000F0000C94A600DE01E50111241FBECFEFCDBF99
:10010000DFE7DEBF10E4A0E0B0E4EAE4F1E100E004
:100110000BBF02C007900D92AE31B107D9F720E4B2
:10012000AEE1B0E401C01D92AD35B207E1F710E0D9
:10013000CBE7D0E004C02197FE010E94B905CA3781
:10014000D107C9F70E9459010C9498080C9400003B
:100150000895FC01208131818281E82FF0E07096C2
:10016000E20FF31F623021F480818860808308955C
:100170008081877F80830895DC0113966C931397A9
:10018000611110C0ED91FC911197408121E030E0A8
:1001900012960C9002C0220F331F0A94E2F7242B10
:1001A000208311C0DC01ED91FC911197408121E089
:1001B00030E012960C9002C0220F331F0A94E2F72F
:1001C0002095242320830E94A90008950F93FC0109
:1001D0004083518362830483622F0E94BC000F918D
:1001E0000895DC01ED91FC911197448121E030E00C
:1001F000C90112960C9002C0880F991F0A94E2F769
:100200008427848308951F93CF93DF93EC01162FE7
:100210008B81811106C08C81861719F0CE010E9456
:10022000F1001C83DF91CF911F910895682F8EE11B
:1002300090E40E94610380E090E008958EE190E4F4
:100240000E947B0390E00895EF92FF920F93CF936B
:10025000DF93EC017B010197E9F46F3F7F4FD1F40D
:1002600000E020E040E254E063E082E590E40E9498
:10027000E60022E040E254E062E08DE490E40E9477
:10028000E60020E032EC41E050E063E08EE190E4F3
:100290000E94C402CD2B39F4EF20E09421F48EE1CA
:1002A00090E40E94EC01DF91CF910F91FF90EF90CD
:1002B0000895CF93DF93CDB7DEB7AE97CDBFDEBF46
:1002C00086E191E089879A878EE191E08B879C8710
:1002D00083E08C83E7E5F0E4CE010196828393838B
:1002E0008083918361E082E590E40E94030161E0F4
:1002F0008DE490E40E940301789410E082E590E49C
:100300000E94F1001F921F9380E090E49F938F93CF
:100310000E94D0051F5F8EE190E40E94A8030F9019
:100320000F900F900F908823A9F07E012FE0E20E2E
:10033000F11CB7018EE190E40E943B03FF92EF9223
:100340008CE090E49F938F930E94D0050F900F90C4
:100350000F900F908FE79AE126E081509040204067
:10036000E1F700C00000CACF1F920F920FB60F92A4
:1003700011240BB60F922F933F934F935F936F937C
:100380007F938F939F93AF93BF93EF93FF938EE1F0
:1003900090E40E948A03FF91EF91BF91AF919F91EA
:1003A0008F917F916F915F914F913F912F910F901E
:1003B0000BBE0F900FBE0F901F9018956FEF7FEF41
:1003C00081E090E00E94240108956FEF7FEF80E0CC
:1003D00090E00E94240108950895EF92FF920F93F8
:1003E000CF93DF93CDB7DEB7E297CDBFDEBF7C0101
:1003F000623009F455C028F4662351F0613061F190
:10040000BAC0633009F470C0643009F491C0B3C05D
:1004100000E020E040E054E060E0CE018E960E94D3
:10042000E60085E0FE01BE96D701129601900D927E
:100430008A95E1F721E040E054E061E0CE01899641
:100440000E94E60085E0FE01B996D701179601905B
:100450000D928A95E1F78FC000E020E040E454E07F
:1004600060E0CE0184960E94E60085E0FE01B4962D
:10047000D701129601900D928A95E1F721E040E4B0
:1004800054E061E0CE014F960E94E60085E0FE0157
:100490007F96D701179601900D928A95E1F76BC070
:1004A00000E020E040EA54E060E0CE014A960E947D
:1004B000E60085E0FE017A96D701129601900D9232
:1004C0008A95E1F721E040EA54E061E0CE014596EB
:1004D0000E94E60085E0FE017596D701179601900F
:1004E0000D928A95E1F747C000E020E040E254E039
:1004F00060E0CE0140960E94E60085E0FE01709625
:10050000D701129601900D928A95E1F721E040E221
:1005100054E061E0CE010B960E94E60085E0FE010A
:100520003B96D701179601900D928A95E1F723C06B
:1005300000E020E040E854E060E0CE0106960E9432
:10054000E60085E0FE013696D701129601900D92E5
:100550008A95E1F721E040E854E061E0CE010196A0
:100560000E94E60085E0FE013196D70117960190C2
:100570000D928A95E1F7E296CDBFDEBFDF91CF9174
:100580000F91FF90EF900895CF92DF92EF92FF923C
:100590000F931F93CF93DF93EC01162F69017A011C
:1005A00002960E94A800CE0107960E94A80016306D
:1005B00008F058C080E2FE013C96DF011D928A954A
:1005C000E9F71CA61230A9F028F4112341F01130EC
:1005D00059F01DC0133091F01430A9F018C080E01C
:1005E00098E08883998313C080E298E08883998398
:1005F0000EC080E498E08883998309C080E698E083
:100600008883998304C080E898E088839983612F68
:10061000CE010E94ED0108811981C701B6010E9437
:10062000BE0420E030E040E851E40E944C059B010C
:10063000AC0160E074E284E79DE40E941D0420E0C8
:1006400030E040E05FE30E94B1030E948F04F801B4
:1006500060877187E881F98180E88583E881F98185
:1006600080EC8683DF91CF911F910F91FF90EF90E7
:10067000DF90CF9008950F931F93CF93DF938C015A
:10068000CB01E8012C9620E230E040E050E0BE01D2
:100690000E94C205F80114A680E2FE0111928A951B
:1006A000E9F7DF91CF911F910F910895DC01ED9152
:1006B000FC91848182958695877091E0892781706D
:1006C00008951F93CF93DF93EC01162FCE010E9464
:1006D00056038111FBCFE881F9811283DF91CF911D
:1006E0001F910895DC01ED91FC9184818095881F14
:1006F0008827881F0895CF93DF93EC01CE010E94D5
:1007000072038111FBCFE881F98181818081DF91C2
:10071000CF9108950F931F93CF93DF93EC010CA516
:1007200010E00E947B03FE01E00FF11F84878CA57F
:1007300090E001968F719078992324F40197806E50
:100740009F6F01968CA7DF91CF911F910F91089514
:1007500021E0FC0184A5811101C020E0822F0895D1
:100760005058BB27AA270E94C8030C9412050E9468
:10077000040538F00E940B0520F039F49F3F19F46E
:1007800026F40C9401050EF4E095E7FB0C94FB04B1
:10079000E92F0E94230558F3BA17620773078407ED
:1007A000950720F079F4A6F50C9445050EF4E09534
:1007B0000B2EBA2FA02D0B01B90190010C01CA011B
:1007C000A0011124FF27591B99F0593F50F4503EC6
:1007D00068F11A16F040A22F232F342F4427585FB8
:1007E000F3CF469537952795A795F0405395C9F7D0
:1007F0007EF41F16BA0B620B730B840BBAF0915088
:10080000A1F0FF0FBB1F661F771F881FC2F70EC026
:10081000BA0F621F731F841F48F4879577956795F9
:10082000B795F7959E3F08F0B0CF9395880F08F0E5
:100830009927EE0F9795879508950E9431040C949F
:1008400012050E940B0558F00E94040540F029F49F
:100850005F3F29F00C94FB0451110C9446050C9455
:1008600001050E94230568F39923B1F3552391F301
:10087000951B550BBB27AA2762177307840738F00F
:100880009F5F5F4F220F331F441FAA1FA9F335D06C
:100890000E2E3AF0E0E832D091505040E695001C20
:1008A000CAF72BD0FE2F29D0660F771F881FBB1FDA
:1008B000261737074807AB07B0E809F0BB0B802DB8
:1008C000BF01FF2793585F4F3AF09E3F510578F0E4
:1008D0000C94FB040C9446055F3FE4F3983ED4F37C
:1008E000869577956795B795F7959F5FC9F7880FB8
:1008F000911D9695879597F90895E1E0660F771F0A
:10090000881FBB1F621773078407BA0720F0621B9A
:10091000730B840BBA0BEE1F88F7E09508950E94C5
:100920002B0588F09F5798F0B92F9927B751B0F051
:10093000E1F0660F771F881F991F1AF0BA95C9F763
:1009400014C0B13091F00E944505B1E008950C94B7
:100950004505672F782F8827B85F39F0B93FCCF36A
:10096000869577956795B395D9F73EF490958095E0
:10097000709561957F4F8F4F9F4F0895E89409C000
:1009800097FB3EF490958095709561957F4F8F4FC2
:100990009F4F9923A9F0F92F96E9BB279395F695D8
:1009A000879577956795B795F111F8CFFAF4BB0F56
:1009B00011F460FF1BC06F5F7F4F8F4F9F4F16C0BA
:1009C000882311F096E911C0772321F09EE8872F44
:1009D000762F05C0662371F096E8862F70E060E000
:1009E0002AF09A95660F771F881FDAF7880F969579
:1009F000879597F9089597F99F6780E870E060E020
:100A000008959FEF80EC089500240A9416161706A7
:100A100018060906089500240A94121613061406EF
:100A200005060895092E0394000C11F4882352F052
:100A3000BB0F40F4BF2B11F460FF04C06F5F7F4F0A
:100A40008F4F9F4F089557FD9058440F551F59F0F1
:100A50005F3F71F04795880F97FB991F61F09F3FAB
:100A600079F087950895121613061406551FF2CFD4
:100A70004695F1DF08C0161617061806991FF1CF24
:100A800086957105610508940895E894BB2766274B
:100A90007727CB0197F908950E945F050C94120502
:100AA0000E94040538F00E940B0520F0952311F0F8
:100AB0000C94FB040C94010511240C9446050E942F
:100AC000230570F3959FC1F3950F50E0551F629F6A
:100AD000F001729FBB27F00DB11D639FAA27F00D97
:100AE000B11DAA1F649F6627B00DA11D661F829FBE
:100AF0002227B00DA11D621F739FB00DA11D621FA3
:100B0000839FA00D611D221F749F3327A00D611DBF
:100B1000231F849F600D211D822F762F6A2F1124A1
:100B20009F5750409AF0F1F088234AF0EE0FFF1FD4
:100B3000BB1F661F771F881F91505040A9F79E3F2B
:100B4000510580F00C94FB040C9446055F3FE4F3E0
:100B5000983ED4F3869577956795B795F795E79581
:100B60009F5FC1F7FE2B880F911D9695879597F98A
:100B70000895EE0FFF1F0024001C0BBE0790F69196
:100B8000E02D0994FB01DC012150304030F0019050
:100B90000D920416C9F7CD01089588279927089565
:100BA000CF93DF93CDB7DEB7AE014B5F5F4FFA0156
:100BB00061917191AF018091594090915A400E948A
:100BC000E405DF91CF9108952F923F924F925F926B
:100BD0006F927F928F929F92AF92BF92CF92DF924D
:100BE000EF92FF920F931F93CF93DF93CDB7DEB7B2
:100BF0002B97CDBFDEBF6C017B018A01FC01168201
:100C00001782838181FFCCC1CE0101963C01F601A0
:100C10009381F70193FD859193FF81917F01882353
:100C200009F4BAC1853239F493FD859193FF81911E
:100C30007F01853229F4B60190E00E94FE07E7CFDC
:100C4000912C212C312CFFE1F315D8F08B3279F067
:100C500038F4803279F08332A1F4232D20611DC055
:100C60008D3261F0803369F4232D216016C0832D0D
:100C70008260382EE32DE4603E2E2AC0F32DF8600A
:100C80001DC037FC2DC020ED280F2A3040F08E32D9
:100C9000B9F436FC81C1232D2064322E19C036FEF2
:100CA00006C08AE0989E200D1124922E11C0EAE021
:100CB0002E9E200D1124222EF32DF0623F2E08C00F
:100CC0008C3621F4832D8068382E02C0883641F49A
:100CD000F70193FD859193FF81917F018111B3CF3E
:100CE000982F9F7D9554933028F40C5F1F4F9FE3FE
:100CF00099830DC0833631F0833771F0833509F065
:100D000059C021C0F801808189830E5F1F4F88245C
:100D10008394912C530113C02801F2E04F0E511C13
:100D2000F801A080B18036FE03C0692D70E002C0DA
:100D30006FEF7FEFC5010E94F3074C018201F32D95
:100D4000FF773F2E16C0280122E0420E511CF80109
:100D5000A080B18036FE03C0692D70E002C06FEF45
:100D60007FEFC5010E94E8074C01F32DF0683F2E8C
:100D7000820133FC1BC0822D90E088169906B0F4E6
:100D8000B60180E290E00E94FE072A94F4CFF501BC
:100D900037FC859137FE81915F01B60190E00E949A
:100DA000FE0721102A9421E0821A910881149104EF
:100DB00071F7E8C0843611F0893641F5F80137FE45
:100DC00007C060817181828193810C5F1F4F08C0D1
:100DD00060817181072E000C880B990B0E5F1F4FED
:100DE000F32DFF763F2E97FF09C090958095709563
:100DF00061957F4F8F4F9F4FF0683F2E2AE030E084
:100E0000A3010E943A08882E861845C0853731F420
:100E1000232D2F7EB22E2AE030E025C0932D997F1E
:100E2000B92E8F36C1F018F4883579F0B5C0803707
:100E300019F0883721F0B0C0E92FE061BE2EB4FE72
:100E40000DC0FB2DF460BF2E09C034FE0AC0292F4F
:100E50002660B22E06C028E030E005C020E130E078
:100E600002C020E132E0F801B7FE07C06081718165
:100E7000828193810C5F1F4F06C06081718180E089
:100E800090E00E5F1F4FA3010E943A08882E86183B
:100E9000FB2DFF773F2E36FE0DC0232D2E7FA22E79
:100EA000891458F434FE0BC032FC09C0832D8E7EA9
:100EB000A82E05C0B82CA32C03C0B82C01C0B92C97
:100EC000A4FE0FC0FE01E80DF11D8081803321F4E6
:100ED0009A2D997EA92E09C0A2FE06C0B394B394A0
:100EE00004C08A2D867809F0B394A3FC11C0A0FE3B
:100EF00006C0B21488F4280C922C9B180EC0B214B1
:100F000060F4B60180E290E00E94FE07B394F7CF50
:100F1000B21418F42B1802C0982C212CA4FE10C077
:100F2000B60180E390E00E94FE07A2FE17C0A1FC7C
:100F300003C088E790E002C088E590E0B6010CC0ED
:100F40008A2D867859F0A1FE02C08BE201C080E2B2
:100F5000A7FC8DE2B60190E00E94FE07891438F4E8
:100F6000B60180E390E00E94FE079A94F7CF8A943E
:100F7000F301E80DF11D8081B60190E00E94FE07AB
:100F80008110F5CF222009F442CEB60180E290E034
:100F90000E94FE072A94F6CFF6018681978102C04F
:100FA0008FEF9FEF2B96CDBFDEBFDF91CF911F91CB
:100FB0000F91FF90EF90DF90CF90BF90AF909F90F8
:100FC0008F907F906F905F904F903F902F900895FB
:100FD000FC010590615070400110D8F78095909504
:100FE0008E0F9F1F0895FC01615070400190011009
:100FF000D8F7809590958E0F9F1F08950F931F939C
:10100000CF93DF93FB01238121FD03C08FEF9FEF7F
:101010002CC022FF16C0468157812481358142179A
:10102000530744F4A081B1819D012F5F3F4F20837E
:1010300031838C93268137812F5F3F4F26833783FF
:1010400014C08B01EC01FB010084F185E02D0995B2
:10105000892BE1F6D80116968D919C9117970196F0
:1010600016968D939C931797CE01DF91CF911F9188
:101070000F910895FA01AA27283051F1203181F10A
:10108000E8946F936E7F6E5F7F4F8F4F9F4FAF4F90
:10109000B1E03ED0B4E03CD0670F781F891F9A1FA3
:1010A000A11D680F791F8A1F911DA11D6A0F711D57
:1010B000811D911DA11D20D009F468943F912AE063
:1010C000269F11243019305D3193DEF6CF0108954B
:1010D000462F4770405D4193B3E00FD0C9F7F6CF7C
:1010E000462F4F70405D4A3318F0495D31FD405244
:1010F000419302D0A9F7EACFB4E0A69597958795DA
:1011000077956795BA95C9F70097610571050895B8
:101110009B01AC010A2E0694579547953795279564
:10112000BA95C9F7620F731F841F951FA01D0895FC
:1011300010E0CBE7D0E004C0FE010E94B905219683
:0A114000CC37D107C9F7F894FFCFB0
:10114A006E756D6265723A0925750A00476F7420DB
:0E115A00737472696E6720272573270A0000E0
:00000001FF
