S00E00006D6C6E6C69622E7372656398
S11300000C947B000C94A5000C94A5000C94A50002
S11300100C94A5000C94A5000C94A5000C94A500C8
S11300200C94A5000C9409030C94A5000C94A50051
S11300300C94A5000C94A5000C94A5000C94A500A8
S11300400C94A5000C94A5000C94A5000C94A50098
S11300500C94A5000C94A5000C94A5000C94A50088
S11300600C94A5000C94A5000C94A5000C94A50078
S11300700C94A5000C94A5000C94A5000C94A50068
S11300800C94A5000C94A5000C94A5000C94A50058
S11300900C94A5000C94A5000C94A5000C94A50048
S11300A00C94A5000C94A5000C94A5000C94A50038
S11300B00C94A5000C94A5000C94A5000C943C038E
S11300C00C94A5000C94A5000C94A5000C94A50018
S11300D00C94A5000C9435050C94A5000C94A50073
S11300E00C94A5000C94A5000C94A5000C94A500F8
S11300F00C94A5009F0111241FBECFEFCDBFDFE7F5
S1130100DEBF10E4A0E0B0E4E2E8FFE000E00BBFF3
S113011002C007900D92A831B107D9F720E4A8E1F5
S1130120B0E401C01D92AE37B207E1F710E0CBE7AF
S1130130D0E004C02197FE010E94A707CA37D10767
S1130140C9F70E9475010C94BF070C940000089530
S1130150FC01208131818281E82FF0E07096E20F6A
S1130160F31F623021F48081886080830895808148
S1130170877F80830895DC0113966C931397611134
S113018010C0ED91FC911197408121E030E012966E
S11301900C9002C0220F331F0A94E2F7242B208311
S11301A011C0DC01ED91FC911197408121E030E018
S11301B012960C9002C0220F331F0A94E2F7209586
S11301C0242320830E94A80008950F93FC014083F8
S11301D0518362830483622F0E94BB000F910895B0
S11301E0FC018481882369F0A081B18181E090E0E1
S11301F0028002C0880F991F0A94E2F716968C9326
S11302000895A081B18181E090E0028002C0880F4E
S1130210991F0A94E2F715968C930895FC01848142
S1130220882369F0A081B18181E090E0028002C05E
S1130230880F991F0A94E2F715968C930895A0816C
S1130240B18181E090E0028002C0880F991F0A9476
S1130250E2F716968C930895DC01ED91FC911197C9
S1130260448121E030E0C90112960C9002C0880F4D
S1130270991F0A94E2F784278483089584E290E422
S11302800E942C0108950F93019769F56F3F7F4FEA
S113029051F520E032EC41E050E063E085E390E486
S11302A00E94780420E434E047E060E479E08EE2E0
S11302B090E40E94A60100E020E040E454E063E002
S11302C089E290E40E94E50020E040E254E063E02B
S11302D084E290E40E94E50044EF51E060E08CE1A8
S11302E090E40E9479020F9108956EE371E08CE12D
S11302F090E40E94F00278948CE190E40E9402035E
S113030080911A4090911B40E8E1F0E4292F20638A
S11303102083818304969F7080931A4090931B409E
S113032042E0BF018EE290E40E94210289E290E45F
S11303300E940E0189E290E40E94F000E1CF6FEF89
S11303407FEF81E090E00E94430108956F927F92D5
S11303508F92CF92DF92EF92FF920F931F93CF93DE
S1130360DF93CDB7DEB76497CDBFDEBF7C018B01D1
S11303703901842E6C0122E0C20ED11CC6010E94F8
S1130380A700D7010D931C9300E020E0682DA30182
S1130390CE0101960E94E50085E0FE013196D6016A
S11303A001900D928A95E1F7F70180819181803463
S11303B0994021F440E054E064E003C040E454E098
S11303C060E000E020E0CE0140960E94E500D70105
S11303D08D919C918034994021F440E054E065E093
S11303E003C040E454E061E000E021E0CE010B965C
S11303F00E94E500F701808191818034994021F4C5
S113040040E054E066E003C040E454E062E000E011
S113041020E0CE0106960E94E500D701ED91FC9103
S113042081E380836496CDBFDEBFDF91CF911F91BE
S11304300F91FF90EF90DF90CF908F907F906F900F
S11304400895CF92DF92EF92FF921F93CF93DF93A1
S1130450EC017B01142F6C0182E0C80ED11CC60193
S11304600E940E019FEF910F112369F0E881F98139
S1130470D7018D917D018483E881F981838188236B
S1130480DCF7192FEFCFC6010E94F000DF91CF9166
S11304901F91FF90EF90DF90CF9008950F931F93DB
S11304A0CF938C01C0E0EC2FF0E0EE0FFF1FE85F6C
S11304B0FF4BA081B18128E13CEF47EE53E00E945D
S11304C09C0720E039E04DE350E00E947A07C80120
S11304D0A0E0B0E0281739074A075B0728F4CF5F8C
S11304E0C83009F78FEF01C08C2FCF911F910F9166
S11304F008958F929F92AF92BF92FF920F931F9392
S1130500CF93DF93EC018A01611105C080E09AE08A
S11305108883998304C080E49AE088839983C8011E
S11305200E944E0290E0FC01E050F04CF080880FF5
S1130530991FFC01E85FFF4BA081B18128E13CEFEA
S113054047EE53E00E949C0720E039E04DE350E081
S11305500E947A07CA01B9010E947F064B015C011F
S1130560B80180E090E00E947F06A50194010E94FA
S1130570DE0520E03FEF4FE757E40E940D070E949D
S11305805006E881F98121E02287E881F98166A398
S113059077A3E881F98120E82083E881F98120812B
S11305A0F22AF08280E090E00E947F0620E03FEF94
S11305B04FE757E40E94DE059B01AC01C501B4017D
S11305C00E940D076A837B838C839D83DF91CF9187
S11305D01F910F91FF90BF90AF909F908F900895BF
S11305E0FC01668377832081318121153A4029F407
S11305F080937440909375400895809372409093D3
S113060073400895DC01ED91FC91808181608083C9
S113061008951F920F920FB60F9211240BB60F92EA
S11306202F933F934F935F936F937F938F939F93F6
S1130630AF93BF93EF93FF93E0917440F0917540B3
S11306400680F781E02D309709F0099581E08093C9
S11306500B0AFF91EF91BF91AF919F918F917F9181
S11306606F915F914F913F912F910F900BBE0F901F
S11306700FBE0F901F9018951F920F920FB60F92F6
S113068011240BB60F922F933F934F935F936F9365
S11306907F938F939F93AF93BF93EF93FF93E091D7
S11306A07240F09173400680F781E02D309709F095
S11306B0099581E080934B0AFF91EF91BF91AF912F
S11306C09F918F917F916F915F914F913F912F9166
S11306D00F900BBE0F900FBE0F901F901895823095
S11306E059F018F4813089F004C0833041F084302B
S11306F049F080E098E0089580E498E0089580E669
S113070098E0089580E898E0089580E298E00895DC
S1130710EF92FF920F93CF93DF93CDB7DEB7E297BB
S1130720CDBFDEBF7C01623009F455C028F46623D6
S113073051F0613061F1BAC0633009F470C06430C3
S113074009F491C0B3C000E020E040E054E060E070
S1130750CE018E960E94E50085E0FE01BE96D7018B
S1130760129601900D928A95E1F721E040E054E061
S113077061E0CE0189960E94E50085E0FE01B9960C
S1130780D701179601900D928A95E1F78FC000E08A
S113079020E040E454E060E0CE0184960E94E5004D
S11307A085E0FE01B496D701129601900D928A95C8
S11307B0E1F721E040E454E061E0CE014F960E946D
S11307C0E50085E0FE017F96D701179601900D9212
S11307D08A95E1F76BC000E020E040EA54E060E075
S11307E0CE014A960E94E50085E0FE017A96D70183
S11307F0129601900D928A95E1F721E040EA54E0C7
S113080061E0CE0145960E94E50085E0FE01759603
S1130810D701179601900D928A95E1F747C000E041
S113082020E040E254E060E0CE0140960E94E50002
S113083085E0FE017096D701129601900D928A957B
S1130840E1F721E040E254E061E0CE010B960E9422
S1130850E50085E0FE013B96D701179601900D92C5
S11308608A95E1F723C000E020E040E854E060E02E
S1130870CE0106960E94E50085E0FE013696D7017A
S1130880129601900D928A95E1F721E040E854E038
S113089061E0CE0101960E94E50085E0FE013196FB
S11308A0D701179601900D928A95E1F7E296CDBF94
S11308B0DEBFDF91CF910F91FF90EF900895FC017F
S11308C080937640909377408FE095E087AB90AF2C
S11308D08DEE94E085AB96AB83E080ABBD96A8E744
S11308E0B0E41296ED93FC931397ED93FC93089563
S11308F0CF92DF92EF92FF920F931F93CF93DF93E8
S1130900EC01162F69017A0102960E94A700CE011C
S113091007960E94A7001630D8F5FE013C9680E2A7
S1130920DF011D928A95E9F71CA6812F0E946F03AF
S113093088839983612FCE010E94880308811981DD
S1130940C701B6010E947F0620E030E040E851E490
S11309500E940D079B01AC0160E074E284E79DE412
S11309600E94DE0520E030E040E05FE30E94720573
S11309700E945006F80160877187E881F98180E858
S11309808583E881F98180EC8683CE010E945F042F
S1130990DF91CF911F910F91FF90EF90DF90CF9057
S11309A00895DC01ED91FC91848182958695877090
S11309B091E08927817008951F93CF93DF93EC0111
S11309C0162FCE010E94D1048111FBCFE881F98159
S11309D01283DF91CF911F910895682F8091764003
S11309E0909177400E94DC0480E090E00895DC015F
S11309F0ED91FC9184818095881F8827881F089534
S1130A00CF93DF93EC01CE010E94F7048111FBCF59
S1130A10E881F98181818081DF91CF91089580916E
S1130A207640909177400E94000590E008950F93DE
S1130A301F93CF93DF93EC010CA510E00E940005F7
S1130A40FE01E00FF11F84878CA590E001968F7161
S1130A509078992324F40197806E9F6F01968CA758
S1130A60DF91CF911F910F9108951F920F920FB6AE
S1130A700F9211240BB60F922F933F934F935F93D2
S1130A806F937F938F939F93AF93BF93EF93FF9352
S1130A9080917640909177400E941705809176402E
S1130AA0909177400E94F704811108C0E09176404C
S1130AB0F091774003ACF4ADE02D0995FF91EF91EF
S1130AC0BF91AF919F918F917F916F915F914F9162
S1130AD03F912F910F900BBE0F900FBE0F901F9060
S1130AE018955058BB27AA270E9489050C94D30651
S1130AF00E94C50638F00E94CC0620F039F49F3FCE
S1130B0019F426F40C94C2060EF4E095E7FB0C9459
S1130B10BC06E92F0E94E40658F3BA17620773076C
S1130B208407950720F079F4A6F50C9406070EF4D3
S1130B30E0950B2EBA2FA02D0B01B90190010C01E9
S1130B40CA01A0011124FF27591B99F0593F50F401
S1130B50503E68F11A16F040A22F232F342F442759
S1130B60585FF3CF469537952795A795F040539551
S1130B70C9F77EF41F16BA0B620B730B840BBAF021
S1130B809150A1F0FF0FBB1F661F771F881FC2F78C
S1130B900EC0BA0F621F731F841F48F487957795A0
S1130BA06795B795F7959E3F08F0B0CF9395880F5A
S1130BB008F09927EE0F9795879508950E94F205FE
S1130BC00C94D3060E94CC0658F00E94C50640F04F
S1130BD029F45F3F29F00C94BC0651110C940707CB
S1130BE00C94C2060E94E40668F39923B1F35523DA
S1130BF091F3951B550BBB27AA276217730784072C
S1130C0038F09F5F5F4F220F331F441FAA1FA9F3C1
S1130C1035D00E2E3AF0E0E832D091505040E695AF
S1130C20001CCAF72BD0FE2F29D0660F771F881F10
S1130C30BB1F261737074807AB07B0E809F0BB0B03
S1130C40802DBF01FF2793585F4F3AF09E3F510517
S1130C5078F00C94BC060C9407075F3FE4F3983ECD
S1130C60D4F3869577956795B795F7959F5FC9F700
S1130C70880F911D9695879597F90895E1E0660F81
S1130C80771F881FBB1F621773078407BA0720F0FA
S1130C90621B730B840BBA0BEE1F88F7E095089563
S1130CA00E94EC0688F09F5798F0B92F9927B75106
S1130CB0B0F0E1F0660F771F881F991F1AF0BA95FC
S1130CC0C9F714C0B13091F00E940607B1E008954D
S1130CD00C940607672F782F8827B85F39F0B93F3F
S1130CE0CCF3869577956795B395D9F73EF49095AF
S1130CF08095709561957F4F8F4F9F4F0895E8942D
S1130D0009C097FB3EF490958095709561957F4F4F
S1130D108F4F9F4F9923A9F0F92F96E9BB279395FD
S1130D20F695879577956795B795F111F8CFFAF40D
S1130D30BB0F11F460FF1BC06F5F7F4F8F4F9F4F3E
S1130D4016C0882311F096E911C0772321F09EE89C
S1130D50872F762F05C0662371F096E8862F70E002
S1130D6060E02AF09A95660F771F881FDAF7880FDC
S1130D709695879597F9089597F99F6780E870E0AD
S1130D8060E008959FEF80EC089500240A941616FD
S1130D90170618060906089500240A941216130665
S1130DA0140605060895092E0394000C11F48823F3
S1130DB052F0BB0F40F4BF2B11F460FF04C06F5F0F
S1130DC07F4F8F4F9F4F089557FD9058440F551FE5
S1130DD059F05F3F71F04795880F97FB991F61F0B9
S1130DE09F3F79F087950895121613061406551F30
S1130DF0F2CF4695F1DF08C0161617061806991F9C
S1130E00F1CF86957105610508940895E894BB2790
S1130E1066277727CB0197F908950E9420070C9441
S1130E20D3060E94C50638F00E94CC0620F0952314
S1130E3011F00C94BC060C94C20611240C94070700
S1130E400E94E40670F3959FC1F3950F50E0551F7F
S1130E50629FF001729FBB27F00DB11D639FAA270B
S1130E60F00DB11DAA1F649F6627B00DA11D661F5A
S1130E70829F2227B00DA11D621F739FB00DA11D7B
S1130E80621F839FA00D611D221F749F3327A00D35
S1130E90611D231F849F600D211D822F762F6A2FD1
S1130EA011249F5750409AF0F1F088234AF0EE0F36
S1130EB0FF1FBB1F661F771F881F91505040A9F763
S1130EC09E3F510580F00C94BC060C9407075F3FCD
S1130ED0E4F3983ED4F3869577956795B795F7959F
S1130EE0E7959F5FC1F7FE2B880F911D9695879517
S1130EF097F90895A1E21A2EAA1BBB1BFD010DC090
S1130F00AA1FBB1FEE1FFF1FA217B307E407F507B5
S1130F1020F0A21BB30BE40BF50B661F771F881F91
S1130F20991F1A9469F760957095809590959B0127
S1130F30AC01BD01CF0108950E94B007A59F900D9B
S1130F40B49F900DA49F800D911D11240895EE0F60
S1130F50FF1F0024001C0BBE0790F691E02D09949E
S1130F60A29FB001B39FC001A39F700D811D1124E6
S1130F70911DB29F700D811D1124911D0895F89447
S1050F80FFCF9D
S1130F8200020406080A0C0E010002000400080014
S10B0F921000400000010004FE
S9030000FC
