:100000000C947B000C94A5000C94A5000C94A50006
:100010000C94A5000C94A5000C94A5000C94A500CC
:100020000C94A5000C94A9020C94A5000C94A500B6
:100030000C94A5000C94A5000C94A5000C94A500AC
:100040000C94A5000C94A5000C94A5000C94A5009C
:100050000C94A5000C94A5000C94A5000C94A5008C
:100060000C94A5000C94A5000C94A5000C94A5007C
:100070000C94A5000C94A5000C94A5000C94A5006C
:100080000C94A5000C94A5000C94A5000C94A5005C
:100090000C94A5000C94A5000C94A5000C94A5004C
:1000A0000C94A5000C94A5000C94A5000C94A5003C
:1000B0000C94A5000C94A5000C94A5000C94DC02F3
:1000C0000C94A5000C94A5000C94A5000C94A5001C
:1000D0000C94A5000C94D5040C94A5000C94A500D8
:1000E0000C94A5000C94A5000C94A5000C94A500FC
:1000F0000C94A500E10111241FBECFEFCDBFDFE7B7
:10010000DEBF10E4A0E0B0E4E0ECF4E100E00BBFFF
:1001100002C007900D92A636B107D9F720E4A6E6F3
:10012000B0E401C01D92A93CB207E1F710E0CBE7B3
:10013000D0E004C02197FE010E944E07CA37D107C4
:10014000C9F70E94BA010C945E0A0C94000008954D
:10015000FC01208131818281E82FF0E07096E20F6E
:10016000F31F623021F4808188608083089580814C
:10017000877F80830895DC0113966C931397611138
:1001800010C0ED91FC911197408121E030E0129672
:100190000C9002C0220F331F0A94E2F7242B208315
:1001A00011C0DC01ED91FC911197408121E030E01C
:1001B00012960C9002C0220F331F0A94E2F720958A
:1001C000242320830E94A80008950F93FC014083FC
:1001D000518362830483622F0E94BB000F910895B4
:1001E000DC01ED91FC911197448121E030E0C901DF
:1001F00012960C9002C0880F991F0A94E2F7842788
:10020000848308951F93CF93DF93EC01162F8B8186
:1002100081110AC0262F30E08C8190E02817390721
:1002200019F0CE010E94F0001C83DF91CF911F9145
:100230000895FC018481882381F0A081B181189602
:100240002C9130E0028002C0359527950A94E2F7A0
:1002500081E020FF0FC080E00895A081B181189651
:100260002C9130E0C901028002C0959587950A94CF
:10027000E2F78170089588EB90E40E94F000089501
:10028000CF93DF938EE690E40E94A30220E030E05B
:100290004AE753E40E94110520E030E44CE156E4C3
:1002A0000E94B4060E94F005C62FD72F86E690E480
:1002B0000E94A30220E030E04AE754E40E941105C6
:1002C00020E030E44CE156E40E94B4060E94F005C0
:1002D0007F936F93DF93CF9380E090E49F938F930E
:1002E0000E94660783EB90E40E9419010F900F9023
:1002F0000F900F900F900F90882329F08FE290E4D9
:100300000E947A0704C08EE390E40E947A07DF918E
:10031000CF9108950F93019759F56F3F7F4F41F5A6
:1003200000E020E040E254E063E088EB90E40E94CB
:10033000E50022E040E254E062E083EB90E40E94BA
:10034000E50020E032EC41E050E063E086E790E435
:100350000E9418044AEF50E060E08EE690E40E94AC
:10036000130248EE53E061E086E690E40E94130237
:100370000F91089561E088EB90E40E94020161E032
:1003800083EB90E40E9402016BE371E08EE690E45F
:100390000E948A0260E471E086E690E40E948A028C
:1003A00078948EE690E40E949C0286E690E40E9497
:1003B0009C0210925000E0E5F0E080818160808333
:1003C000FACF6FEF7FEF81E090E00E948A010895FD
:1003D0000F931F93CF938C01C0E0EC2FF0E0EE0F52
:1003E000FF1FEA5AFF4BA081B18128E13CEF47EEA5
:1003F00053E00E94430720E039E04DE350E00E94C3
:100400002107C801A0E0B0E0281739074A075B07B9
:1004100028F4CF5FC83009F78FEF01C08C2FCF9140
:100420001F910F9108958F929F92AF92BF92FF926A
:100430000F931F93CF93DF93EC018A01611105C0E5
:1004400080E09AE08883998304C080E49AE08883FE
:100450009983C8010E94E80190E0FC01E25BFF4B38
:10046000F080880F991FFC01EA5AFF4BA081B181EF
:1004700028E13CEF47EE53E00E94430720E039E0DB
:100480004DE350E00E942107CA01B9010E942606EF
:100490004B015C01B80180E090E00E942606A501B6
:1004A00094010E947E0520E03FEF4FE757E40E9451
:1004B000B4060E94F705E881F98121E02287E881EE
:1004C000F98166A377A3E881F98120E82083E88198
:1004D000F9812081F22AF08280E090E00E942606D5
:1004E00020E03FEF4FE757E40E947E059B01AC01FF
:1004F000C501B4010E94B4066A837B838C839D830B
:10050000DF91CF911F910F91FF90BF90AF909F907F
:100510008F900895FC0166837783208131812115B6
:100520003A4029F48093BF409093C040089580934F
:10053000BD409093BE400895DC01ED91FC91808117
:10054000816080830895FC0162817381848195813B
:1005500008951F920F920FB60F9211240BB60F92AF
:100560002F933F934F935F936F937F938F939F93BB
:10057000AF93BF93EF93FF93E091BF40F091C040E2
:100580000680F781E02D309709F0099581E080938E
:100590000B0AFF91EF91BF91AF919F918F917F9146
:1005A0006F915F914F913F912F910F900BBE0F90E4
:1005B0000FBE0F901F9018951F920F920FB60F92BB
:1005C00011240BB60F922F933F934F935F936F932A
:1005D0007F938F939F93AF93BF93EF93FF93E0919C
:1005E000BD40F091BE400680F781E02D309709F0C4
:1005F000099581E080934B0AFF91EF91BF91AF91F4
:100600009F918F917F916F915F914F913F912F912A
:100610000F900BBE0F900FBE0F901F901895823059
:1006200059F018F4813089F004C0833041F08430EF
:1006300049F080E098E0089580E498E0089580E62D
:1006400098E0089580E898E0089580E298E00895A1
:10065000EF92FF920F93CF93DF93CDB7DEB7E29780
:10066000CDBFDEBF7C01623009F455C028F466239B
:1006700051F0613061F1BAC0633009F470C0643088
:1006800009F491C0B3C000E020E040E054E060E035
:10069000CE018E960E94E50085E0FE01BE96D70150
:1006A000129601900D928A95E1F721E040E054E026
:1006B00061E0CE0189960E94E50085E0FE01B996D1
:1006C000D701179601900D928A95E1F78FC000E04F
:1006D00020E040E454E060E0CE0184960E94E50012
:1006E00085E0FE01B496D701129601900D928A958D
:1006F000E1F721E040E454E061E0CE014F960E9432
:10070000E50085E0FE017F96D701179601900D92D6
:100710008A95E1F76BC000E020E040EA54E060E039
:10072000CE014A960E94E50085E0FE017A96D70147
:10073000129601900D928A95E1F721E040EA54E08B
:1007400061E0CE0145960E94E50085E0FE017596C8
:10075000D701179601900D928A95E1F747C000E006
:1007600020E040E254E060E0CE0140960E94E500C7
:1007700085E0FE017096D701129601900D928A9540
:10078000E1F721E040E254E061E0CE010B960E94E7
:10079000E50085E0FE013B96D701179601900D928A
:1007A0008A95E1F723C000E020E040E854E060E0F3
:1007B000CE0106960E94E50085E0FE013696D7013F
:1007C000129601900D928A95E1F721E040E854E0FD
:1007D00061E0CE0101960E94E50085E0FE013196C0
:1007E000D701179601900D928A95E1F7E296CDBF59
:1007F000DEBFDF91CF910F91FF90EF900895FC0144
:100800008093C1409093C2408FEA94E087AB90AF51
:100810008DE894E085AB96AB83E080ABBD96A3EC0E
:10082000B0E41296ED93FC931397ED93FC93089527
:10083000CF92DF92EF92FF920F931F93CF93DF93AC
:10084000EC01162F69017A0102960E94A700CE01E1
:1008500007960E94A7001630D8F5FE013C9680E26C
:10086000DF011D928A95E9F71CA6812F0E940F03D4
:1008700088839983612FCE010E9428030881198102
:10088000C701B6010E94260620E030E040E851E4AE
:100890000E94B4069B01AC0160E074E284E79DE431
:1008A0000E947E0520E030E040E05FE30E941205F8
:1008B0000E94F705F80160877187E881F98180E877
:1008C0008583E881F98180EC8683CE010E94FF0355
:1008D000DF91CF911F910F91FF90EF90DF90CF901C
:1008E0000895DC01ED91FC91848182958695877055
:1008F00091E08927817008951F93CF93DF93EC01D6
:10090000162FCE010E9471048111FBCFE881F9817D
:100910001283DF91CF911F910895682F8091C1407C
:100920009091C2400E947C0480E090E00895DC0138
:10093000ED91FC9184818095881F8827881F0895F8
:10094000CF93DF93EC01CE010E9497048111FBCF7E
:10095000E881F98181818081DF91CF910895809133
:10096000C1409091C2400E94A00490E008950F936E
:100970001F93CF93DF93EC010CA510E00E94A0041D
:10098000FE01E00FF11F84878CA590E001968F7126
:100990009078992324F40197806E9F6F01968CA71D
:1009A000DF91CF911F910F9108951F920F920FB673
:1009B0000F9211240BB60F922F933F934F935F9397
:1009C0006F937F938F939F93AF93BF93EF93FF9317
:1009D0008091C1409091C2400E94B7048091C14073
:1009E0009091C2400E949704811108C0E091C140DB
:1009F000F091C24003ACF4ADE02D0995FF91EF9169
:100A0000BF91AF919F918F917F916F915F914F9126
:100A10003F912F910F900BBE0F900FBE0F901F9024
:100A200018955058BB27AA270E9429050C947A06CE
:100A30000E946C0638F00E94730620F039F49F3F44
:100A400019F426F40C9469060EF4E095E7FB0C9477
:100A50006306E92F0E948B0658F3BA1762077307E3
:100A60008407950720F079F4A6F50C94AD060EF4F2
:100A7000E0950B2EBA2FA02D0B01B90190010C01AE
:100A8000CA01A0011124FF27591B99F0593F50F4C6
:100A9000503E68F11A16F040A22F232F342F44271E
:100AA000585FF3CF469537952795A795F040539516
:100AB000C9F77EF41F16BA0B620B730B840BBAF0E6
:100AC0009150A1F0FF0FBB1F661F771F881FC2F751
:100AD0000EC0BA0F621F731F841F48F48795779565
:100AE0006795B795F7959E3F08F0B0CF9395880F1F
:100AF00008F09927EE0F9795879508950E94920523
:100B00000C947A060E94730658F00E946C0640F01E
:100B100029F45F3F29F00C94630651110C94AE0642
:100B20000C9469060E948B0668F39923B1F3552350
:100B300091F3951B550BBB27AA27621773078407F0
:100B400038F09F5F5F4F220F331F441FAA1FA9F386
:100B500035D00E2E3AF0E0E832D091505040E69574
:100B6000001CCAF72BD0FE2F29D0660F771F881FD5
:100B7000BB1F261737074807AB07B0E809F0BB0BC8
:100B8000802DBF01FF2793585F4F3AF09E3F5105DC
:100B900078F00C9463060C94AE065F3FE4F3983E45
:100BA000D4F3869577956795B795F7959F5FC9F7C5
:100BB000880F911D9695879597F90895E1E0660F46
:100BC000771F881FBB1F621773078407BA0720F0BF
:100BD000621B730B840BBA0BEE1F88F7E095089528
:100BE0000E94F7056894B1110C94AE0608950E9416
:100BF000930688F09F5798F0B92F9927B751B0F016
:100C0000E1F0660F771F881F991F1AF0BA95C9F790
:100C100014C0B13091F00E94AD06B1E008950C947B
:100C2000AD06672F782F8827B85F39F0B93FCCF32E
:100C3000869577956795B395D9F73EF4909580950D
:100C4000709561957F4F8F4F9F4F0895E89409C02D
:100C500097FB3EF490958095709561957F4F8F4FEF
:100C60009F4F9923A9F0F92F96E9BB279395F69505
:100C7000879577956795B795F111F8CFFAF4BB0F83
:100C800011F460FF1BC06F5F7F4F8F4F9F4F16C0E7
:100C9000882311F096E911C0772321F09EE8872F71
:100CA000762F05C0662371F096E8862F70E060E02D
:100CB0002AF09A95660F771F881FDAF7880F9695A6
:100CC000879597F9089597F99F6780E870E060E04D
:100CD00008959FEF80EC089500240A9416161706D5
:100CE00018060906089500240A941216130614061D
:100CF00005060895092E0394000C11F4882352F080
:100D0000BB0F40F4BF2B11F460FF04C06F5F7F4F37
:100D10008F4F9F4F089557FD9058440F551F59F01E
:100D20005F3F71F04795880F97FB991F61F09F3FD8
:100D300079F087950895121613061406551FF2CF01
:100D40004695F1DF08C0161617061806991FF1CF51
:100D500086957105610508940895E894BB27662778
:100D60007727CB0197F908950E94C7060C947A065D
:100D70000E946C0638F00E94730620F0952311F053
:100D80000C9463060C94690611240C94AE060E9420
:100D90008B0670F3959FC1F3950F50E0551F629F2E
:100DA000F001729FBB27F00DB11D639FAA27F00DC4
:100DB000B11DAA1F649F6627B00DA11D661F829FEB
:100DC0002227B00DA11D621F739FB00DA11D621FD0
:100DD000839FA00D611D221F749F3327A00D611DED
:100DE000231F849F600D211D822F762F6A2F1124CF
:100DF0009F5750409AF0F1F088234AF0EE0FFF1F02
:100E0000BB1F661F771F881F91505040A9F79E3F58
:100E1000510580F00C9463060C94AE065F3FE4F33A
:100E2000983ED4F3869577956795B795F795E795AE
:100E30009F5FC1F7FE2B880F911D9695879597F9B7
:100E40000895A1E21A2EAA1BBB1BFD010DC0AA1F0B
:100E5000BB1FEE1FFF1FA217B307E407F50720F023
:100E6000A21BB30BE40BF50B661F771F881F991F9E
:100E70001A9469F760957095809590959B01AC01E7
:100E8000BD01CF0108950E945707A59F900DB49F03
:100E9000900DA49F800D911D11240895EE0FFF1F4A
:100EA0000024001C0BBE0790F691E02D0994A29F30
:100EB000B001B39FC001A39F700D811D1124911D2E
:100EC000B29F700D811D1124911D0895CF93DF9362
:100ED000CDB7DEB7AE014B5F5F4FFA016191719103
:100EE000AF018091C5409091C6400E94AA07DF9152
:100EF000CF9108950F931F93CF93DF93E091C54057
:100F0000F091C640238121FF1BC08C01D0E0C0E0DE
:100F1000F80181918F016091C5407091C640DB015D
:100F20001896ED91FC911997882331F00995892B3A
:100F300079F3DFEFCFEFECCF8AE00995892B19F039
:100F40008FEF9FEF02C08D2F9C2FDF91CF911F91CC
:100F50000F9108952F923F924F925F926F927F92DE
:100F60008F929F92AF92BF92CF92DF92EF92FF92B9
:100F70000F931F93CF93DF93CDB7DEB72B97CDBFE2
:100F8000DEBF6C017B018A01FC011682178283811E
:100F900081FFCCC1CE0101963C01F6019381F7019E
:100FA00093FD859193FF81917F01882309F4BAC154
:100FB000853239F493FD859193FF81917F018532CC
:100FC00029F4B60190E00E94C409E7CF912C212CAE
:100FD000312CFFE1F315D8F08B3279F038F4803200
:100FE00079F08332A1F4232D20611DC08D3261F090
:100FF000803369F4232D216016C0832D8260382E42
:10100000E32DE4603E2E2AC0F32DF8601DC037FCAE
:101010002DC020ED280F2A3040F08E32B9F436FC76
:1010200081C1232D2064322E19C036FE06C08AE00D
:10103000989E200D1124922E11C0EAE02E9E200DC4
:101040001124222EF32DF0623F2E08C08C3621F49D
:10105000832D8068382E02C0883641F4F70193FD55
:10106000859193FF81917F018111B3CF982F9F7D4F
:101070009554933028F40C5F1F4F9FE399830DC064
:10108000833631F0833771F0833509F059C021C0C0
:10109000F801808189830E5F1F4F88248394912CEF
:1010A000530113C02801F2E04F0E511CF801A0803B
:1010B000B18036FE03C0692D70E002C06FEF7FEF94
:1010C000C5010E94B9094C018201F32DFF773F2E23
:1010D00016C0280122E0420E511CF801A080B18008
:1010E00036FE03C0692D70E002C06FEF7FEFC501CF
:1010F0000E94AE094C01F32DF0683F2E820133FCB3
:101100001BC0822D90E088169906B0F4B60180E2EB
:1011100090E00E94C4092A94F4CFF50137FC859130
:1011200037FE81915F01B60190E00E94C409211051
:101130002A9421E0821A91088114910471F7E8C081
:10114000843611F0893641F5F80137FE07C0608119
:101150007181828193810C5F1F4F08C06081718112
:10116000072E000C880B990B0E5F1F4FF32DFF7697
:101170003F2E97FF09C090958095709561957F4FA0
:101180008F4F9F4FF0683F2E2AE030E0A3010E946E
:10119000000A882E861845C0853731F4232D2F7E0E
:1011A000B22E2AE030E025C0932D997FB92E8F36DC
:1011B000C1F018F4883579F0B5C0803719F0883758
:1011C00021F0B0C0E92FE061BE2EB4FE0DC0FB2DB2
:1011D000F460BF2E09C034FE0AC0292F2660B22E4B
:1011E00006C028E030E005C020E130E002C020E188
:1011F00032E0F801B7FE07C060817181828193817E
:101200000C5F1F4F06C06081718180E090E00E5F2F
:101210001F4FA3010E94000A882E8618FB2DFF771E
:101220003F2E36FE0DC0232D2E7FA22E891458F49A
:1012300034FE0BC032FC09C0832D8E7EA82E05C063
:10124000B82CA32C03C0B82C01C0B92CA4FE0FC02D
:10125000FE01E80DF11D8081803321F49A2D997EE5
:10126000A92E09C0A2FE06C0B394B39404C08A2D6F
:10127000867809F0B394A3FC11C0A0FE06C0B21496
:1012800088F4280C922C9B180EC0B21460F4B6019E
:1012900080E290E00E94C409B394F7CFB21418F42E
:1012A0002B1802C0982C212CA4FE10C0B60180E39C
:1012B00090E00E94C409A2FE17C0A1FC03C088E709
:1012C00090E002C088E590E0B6010CC08A2D8678D7
:1012D00059F0A1FE02C08BE201C080E2A7FC8DE2C2
:1012E000B60190E00E94C409891438F4B60180E385
:1012F00090E00E94C4099A94F7CF8A94F301E80D14
:10130000F11D8081B60190E00E94C4098110F5CFE3
:10131000222009F442CEB60180E290E00E94C40986
:101320002A94F6CFF6018681978102C08FEF9FEF56
:101330002B96CDBFDEBFDF91CF911F910F91FF9014
:10134000EF90DF90CF90BF90AF909F908F907F9065
:101350006F905F904F903F902F900895FC01059003
:10136000615070400110D8F7809590958E0F9F1FA7
:101370000895FC016150704001900110D8F78095EC
:1013800090958E0F9F1F08950F931F93CF93DF9318
:10139000FB01238121FD03C08FEF9FEF2CC022FFB3
:1013A00016C046815781248135814217530744F482
:1013B000A081B1819D012F5F3F4F208331838C93AA
:1013C000268137812F5F3F4F2683378314C08B01DF
:1013D000EC01FB010084F185E02D0995892BE1F6F4
:1013E000D80116968D919C911797019616968D931C
:1013F0009C931797CE01DF91CF911F910F91089584
:10140000FA01AA27283051F1203181F1E8946F9335
:101410006E7F6E5F7F4F8F4F9F4FAF4FB1E03ED0DB
:10142000B4E03CD0670F781F891F9A1FA11D680F79
:10143000791F8A1F911DA11D6A0F711D811D911DAC
:10144000A11D20D009F468943F912AE0269F112421
:101450003019305D3193DEF6CF010895462F477085
:10146000405D4193B3E00FD0C9F7F6CF462F4F70E0
:10147000405D4A3318F0495D31FD4052419302D03E
:10148000A9F7EACFB4E0A6959795879577956795E4
:10149000BA95C9F700976105710508959B01AC01E4
:1014A0000A2E06945795479537952795BA95C9F70B
:1014B000620F731F841F951FA01D0895F894FFCF1E
:1014C0004572726F72732028302E317573293A0974
:1014D000256420286C6564207461736B2909256478
:1014E00020287072696E74207461736B290A00423F
:1014F0007574746F6E2070726573736564006275C5
:1015000074746F6E2072656C6561736564000002AF
:101510000406080A0C0E0100020004000800100076
:0615200040000001000480
:00000001FF
