:100000000C947B000C94A5000C94A5000C94A50006
:100010000C94A5000C94A5000C94A5000C94A500CC
:100020000C94A5000C94A3030C94A5000C94A500BB
:100030000C94A5000C94A5000C94A5000C94A500AC
:100040000C94A5000C94A5000C94A5000C94A5009C
:100050000C94A5000C94A5000C94A5000C94A5008C
:100060000C94A5000C94A5000C94A5000C94A5007C
:100070000C94A5000C94A5000C94A5000C94A5006C
:100080000C94A5000C94A5000C94A5000C94A5005C
:100090000C94A5000C94A5000C94A5000C94A5004C
:1000A0000C94A5000C94A5000C94A5000C94A5003C
:1000B0000C94A5000C94A5000C94A5000C94D603F8
:1000C0000C94A5000C94A5000C94A5000C94A5001C
:1000D0000C94A5000C94D6050C94A5000C94A500D6
:1000E0000C94A5000C94A5000C94A5000C94A500FC
:1000F0000C94A500350211241FBECFEFCDBFDFE762
:10010000DEBF10E4A0E0B0E4E0ECF0E100E00BBF03
:1001100002C007900D92AA31B107D9F720E4AAE1F5
:10012000B0E401C01D92A138B207E1F710E0CBE7BF
:10013000D0E004C02197FE010E944608CA37D107CB
:10014000C9F70E94F3010C945E080C9400008F9292
:100150009F92AF92BF92CF92DF92EF92FF920F9356
:10016000CF93DF93CDB7DEB76297CDBFDEBF5C0123
:100170004B012D873E874F87E88AF98A0A8B0E94B8
:10018000B702650187E0C80ED11CC6010E9422019A
:100190002D853E854F85B401CE0106960E943C0216
:1001A00087E0FE013696D50101900D928A95E1F720
:1001B00000E020E0488959896A89CE0101960E94B1
:1001C000600185E0FE013196D60101900D928A957D
:1001D000E1F7C6010E946B016296CDBFDEBFDF91E1
:1001E000CF910F91FF90EF90DF90CF90BF90AF90A5
:1001F0009F908F900895FC0164870895CF93DF93BB
:10020000EC01852F50E8659FB00111249C8550E2D8
:10021000959F90011124562F522B582B50615D87CA
:100220004E87BE01635F7F4F42E0CE010E94BB025A
:100230002796CE010E948901CE010E946B01DF91B9
:10024000CF9108950895FC01208131818281E82FAA
:10025000F0E07096E20FF31F623021F48081886035
:10026000808308958081877F80830895DC011396C1
:100270006C931397611110C0ED91FC91119740811F
:1002800021E030E012960C9002C0220F331F0A9436
:10029000E2F7242B208311C0DC01ED91FC91119732
:1002A000408121E030E012960C9002C0220F331FF3
:1002B0000A94E2F72095242320830E9423010895C5
:1002C0000F93FC014083518362830483622F0E9459
:1002D00036010F910895FC018481882369F0A08183
:1002E000B18181E090E0028002C0880F991F0A94DA
:1002F000E2F716968C930895A081B18181E090E099
:10030000028002C0880F991F0A94E2F715968C9319
:100310000895FC018481882369F0A081B18181E086
:1003200090E0028002C0880F991F0A94E2F71596A8
:100330008C930895A081B18181E090E0028002C099
:10034000880F991F0A94E2F716968C930895DC01A2
:10035000ED91FC911197448121E030E0C9011296A2
:100360000C9002C0880F991F0A94E2F784278483B7
:10037000089583E390E40E94A7010895EF92FF920D
:100380000F93019761F56F3F7F4F49F520E032EC05
:1003900041E050E063E088E390E40E94120500E051
:1003A00020E040E254E063E083E390E40E946001D7
:1003B00044EF51E060E08BE290E40E941303689404
:1003C000EE24E6F86894FF24F2F803E020E434E039
:1003D00047E060E479E08CE190E40E94A7000F918F
:1003E000FF90EF90089569EB71E08BE290E40E943A
:1003F0008A0378948BE290E40E949C0340911A4017
:1004000050911B4060E08CE190E40E94FE008091DE
:100410001A4090911B404FEF5FE0481B590B61E081
:100420008CE190E40E94FE0080911A4090911B4064
:10043000089680931A4090931B4081159041F0F2EA
:1004400010921A4010921B4080910040813019F4A4
:100450001092004003C081E0809300406091004012
:100460008CE190E40E94FB00C9CF6FEF7FEF81E049
:1004700090E00E94BE0108956F927F928F92CF927A
:10048000DF92EF92FF920F931F93CF93DF93CDB73D
:10049000DEB76497CDBFDEBF7C018B013901842EAE
:1004A0006C0122E0C20ED11CC6010E942201D701BC
:1004B0000D931C9300E020E0682DA301CE0140962F
:1004C0000E94600185E0FE017096D60101900D92B8
:1004D0008A95E1F7F701808191818034994021F478
:1004E00040E054E064E003C040E454E060E000E039
:1004F00020E0CE010B960E946001D7018D919C9166
:100500008034994021F440E054E065E003C040E4C9
:1005100054E061E000E021E0CE0106960E94600117
:10052000F701808191818034994021F440E054E0CA
:1005300066E003C040E454E062E000E020E0CE0169
:1005400001960E946001D701ED91FC9181E38083C7
:100550006496CDBFDEBFDF91CF911F910F91FF90C9
:10056000EF90DF90CF908F907F906F9008950296DC
:100570000E9422010895CF92DF92EF92FF921F9383
:10058000CF93DF93EC017B01142F6C0182E0C80E46
:10059000D11CC6010E9489019FEF910F112369F0C0
:1005A000E881F981D7018D917D018483E881F9810A
:1005B00083818823DCF7192FEFCFC6010E946B01DE
:1005C000DF91CF911F91FF90EF90DF90CF90089532
:1005D0000F931F93CF938C01C0E0EC2FF0E0EE0F50
:1005E000FF1FE75FFF4BA081B18128E13CEF47EEA1
:1005F00053E00E943B0820E039E04DE350E00E94C8
:100600001908C801A0E0B0E0281739074A075B07BE
:1006100028F4CF5FC83009F78FEF01C08C2FCF913E
:100620001F910F9108958F929F92AF92BF92FF9268
:100630000F931F93CF93DF93EC018A01611105C0E3
:1006400080E09AE08883998304C080E49AE08883FC
:100650009983C8010E94E80290E0FC01EF5FFF4B24
:10066000F080880F991FFC01E75FFF4BA081B181EB
:1006700028E13CEF47EE53E00E943B0820E039E0E0
:100680004DE350E00E941908CA01B9010E941E07FB
:100690004B015C01B80180E090E00E941E07A501BB
:1006A00094010E947D0620E03FEF4FE757E40E944F
:1006B000AC070E94EF06E881F98121E02287E881FA
:1006C000F98166A377A3E881F98120E82083E88196
:1006D000F9812081F22AF08280E090E00E941E07DA
:1006E00020E03FEF4FE757E40E947D069B01AC01FD
:1006F000C501B4010E94AC076A837B838C839D8310
:10070000DF91CF911F910F91FF90BF90AF909F907D
:100710008F900895FC0166837783208131812115B4
:100720003A4029F4809377409093784008958093DD
:100730007540909376400895DC01ED91FC918081A5
:100740008160808308951F920F920FB60F9211243B
:100750000BB60F922F933F934F935F936F937F93BB
:100760008F939F93AF93BF93EF93FF93E091774065
:10077000F09178400680F781E02D309709F00995D7
:1007800081E080930B0AFF91EF91BF91AF919F9110
:100790008F917F916F915F914F913F912F910F902A
:1007A0000BBE0F900FBE0F901F9018951F920F92C7
:1007B0000FB60F9211240BB60F922F933F934F93C6
:1007C0005F936F937F938F939F93AF93BF93EF93B9
:1007D000FF93E0917540F09176400680F781E02D1F
:1007E000309709F0099581E080934B0AFF91EF91D2
:1007F000BF91AF919F918F917F916F915F914F9139
:100800003F912F910F900BBE0F900FBE0F901F9036
:100810001895823059F018F4813089F004C0833083
:1008200041F0843049F080E098E0089580E498E059
:10083000089580E698E0089580E898E0089580E2C1
:1008400098E00895EF92FF920F93CF93DF93CDB787
:10085000DEB7E297CDBFDEBF7C01623009F455C040
:1008600028F4662351F0613061F1BAC0633009F4B5
:1008700070C0643009F491C0B3C000E020E040E0F3
:1008800054E060E0CE018E960E94600185E0FE019A
:10089000BE96D701129601900D928A95E1F721E05C
:1008A00040E054E061E0CE0189960E94600185E05D
:1008B000FE01B996D701179601900D928A95E1F73E
:1008C0008FC000E020E040E454E060E0CE01849678
:1008D0000E94600185E0FE01B496D7011296019056
:1008E0000D928A95E1F721E040E454E061E0CE0109
:1008F0004F960E94600185E0FE017F96D701179612
:1009000001900D928A95E1F76BC000E020E040EA8B
:1009100054E060E0CE014A960E94600185E0FE014D
:100920007A96D701129601900D928A95E1F721E00F
:1009300040EA54E061E0CE0145960E94600185E006
:10094000FE017596D701179601900D928A95E1F7F1
:1009500047C000E020E040E254E060E0CE01409675
:100960000E94600185E0FE017096D7011296019009
:100970000D928A95E1F721E040E254E061E0CE017A
:100980000B960E94600185E0FE013B96D701179609
:1009900001900D928A95E1F723C000E020E040E845
:1009A00054E060E0CE0106960E94600185E0FE0101
:1009B0003696D701129601900D928A95E1F721E0C3
:1009C00040E854E061E0CE0101960E94600185E0BC
:1009D000FE013196D701179601900D928A95E1F7A5
:1009E000E296CDBFDEBFDF91CF910F91FF90EF90E8
:1009F0000895FC018093794090937A4080EB95E0D4
:100A000087AB90AF8EE895E085AB96AB83E080AB8B
:100A1000BD96ABE7B0E41296ED93FC931397ED937C
:100A2000FC930895CF92DF92EF92FF920F931F9362
:100A3000CF93DF93EC01162F69017A0102960E9491
:100A40002201CE0107960E9422011630D8F5FE0140
:100A50003C9680E2DF011D928A95E9F71CA6812F62
:100A60000E94090488839983612FCE010E94220489
:100A700008811981C701B6010E941E0720E030E0FD
:100A800040E851E40E94AC079B01AC0160E074E2D5
:100A900084E79DE40E947D0620E030E040E05FE3D3
:100AA0000E9411060E94EF06F80160877187E881B5
:100AB000F98180E88583E881F98180EC8683CE0125
:100AC0000E94F904DF91CF911F910F91FF90EF9059
:100AD000DF90CF900895DC01DB96ED91FC91DC97DF
:100AE00009950895DC01ED91FC91848182958695AC
:100AF000877091E08927817008951F93CF93DF93CA
:100B0000EC01162FCE010E9472058111FBCFE88106
:100B1000F9811283DF91CF911F910895682F809101
:100B2000794090917A400E947D0580E090E00895A0
:100B3000DC01ED91FC9184818095881F8827881FB6
:100B40000895CF93DF93EC01CE010E9498058111A7
:100B5000FBCFE881F98181818081DF91CF91089578
:100B60008091794090917A400E94A10590E008958B
:100B70000F931F93CF93DF93EC010CA510E00E941D
:100B8000A105FE01E00FF11F84878CA590E001967E
:100B90008F719078992324F40197806E9F6F01964E
:100BA0008CA7DF91CF911F910F9108951F920F9203
:100BB0000FB60F9211240BB60F922F933F934F93C2
:100BC0005F936F937F938F939F93AF93BF93EF93B5
:100BD000FF938091794090917A400E94B80580916E
:100BE000794090917A400E949805811106C08091C9
:100BF000794090917A400E946B05FF91EF91BF91EF
:100C0000AF919F918F917F916F915F914F913F91A4
:100C10002F910F900BBE0F900FBE0F901F90189545
:100C20005058BB27AA270E9428060C9472070E94DE
:100C3000640738F00E946B0720F039F49F3F19F4E5
:100C400026F40C9461070EF4E095E7FB0C945B0727
:100C5000E92F0E94830758F3BA17620773078407C6
:100C6000950720F079F4A6F50C94A5070EF4E0950D
:100C70000B2EBA2FA02D0B01B90190010C01CA0156
:100C8000A0011124FF27591B99F0593F50F4503E01
:100C900068F11A16F040A22F232F342F4427585FF3
:100CA000F3CF469537952795A795F0405395C9F70B
:100CB0007EF41F16BA0B620B730B840BBAF09150C3
:100CC000A1F0FF0FBB1F661F771F881FC2F70EC062
:100CD000BA0F621F731F841F48F487957795679535
:100CE000B795F7959E3F08F0B0CF9395880F08F021
:100CF0009927EE0F9795879508950E9491060C9479
:100D000072070E946B0758F00E94640740F029F4B4
:100D10005F3F29F00C945B0751110C94A6070C94CB
:100D200061070E94830768F39923B1F3552391F378
:100D3000951B550BBB27AA2762177307840738F04A
:100D40009F5F5F4F220F331F441FAA1FA9F335D0A7
:100D50000E2E3AF0E0E832D091505040E695001C5B
:100D6000CAF72BD0FE2F29D0660F771F881FBB1F15
:100D7000261737074807AB07B0E809F0BB0B802DF3
:100D8000BF01FF2793585F4F3AF09E3F510578F01F
:100D90000C945B070C94A6075F3FE4F3983ED4F3F2
:100DA000869577956795B795F7959F5FC9F7880FF3
:100DB000911D9695879597F90895E1E0660F771F45
:100DC000881FBB1F621773078407BA0720F0621BD6
:100DD000730B840BBA0BEE1F88F7E09508950E9401
:100DE0008B0788F09F5798F0B92F9927B751B0F02B
:100DF000E1F0660F771F881F991F1AF0BA95C9F79F
:100E000014C0B13091F00E94A507B1E008950C9490
:100E1000A507672F782F8827B85F39F0B93FCCF343
:100E2000869577956795B395D9F73EF4909580951B
:100E3000709561957F4F8F4F9F4F0895E89409C03B
:100E400097FB3EF490958095709561957F4F8F4FFD
:100E50009F4F9923A9F0F92F96E9BB279395F69513
:100E6000879577956795B795F111F8CFFAF4BB0F91
:100E700011F460FF1BC06F5F7F4F8F4F9F4F16C0F5
:100E8000882311F096E911C0772321F09EE8872F7F
:100E9000762F05C0662371F096E8862F70E060E03B
:100EA0002AF09A95660F771F881FDAF7880F9695B4
:100EB000879597F9089597F99F6780E870E060E05B
:100EC00008959FEF80EC089500240A9416161706E3
:100ED00018060906089500240A941216130614062B
:100EE00005060895092E0394000C11F4882352F08E
:100EF000BB0F40F4BF2B11F460FF04C06F5F7F4F46
:100F00008F4F9F4F089557FD9058440F551F59F02C
:100F10005F3F71F04795880F97FB991F61F09F3FE6
:100F200079F087950895121613061406551FF2CF0F
:100F30004695F1DF08C0161617061806991FF1CF5F
:100F400086957105610508940895E894BB27662786
:100F50007727CB0197F908950E94BF070C94720779
:100F60000E94640738F00E946B0720F0952311F06F
:100F70000C945B070C94610711240C94A6070E9443
:100F8000830770F3959FC1F3950F50E0551F629F43
:100F9000F001729FBB27F00DB11D639FAA27F00DD2
:100FA000B11DAA1F649F6627B00DA11D661F829FF9
:100FB0002227B00DA11D621F739FB00DA11D621FDE
:100FC000839FA00D611D221F749F3327A00D611DFB
:100FD000231F849F600D211D822F762F6A2F1124DD
:100FE0009F5750409AF0F1F088234AF0EE0FFF1F10
:100FF000BB1F661F771F881F91505040A9F79E3F67
:10100000510580F00C945B070C94A6075F3FE4F356
:10101000983ED4F3869577956795B795F795E795BC
:101020009F5FC1F7FE2B880F911D9695879597F9C5
:101030000895A1E21A2EAA1BBB1BFD010DC0AA1F19
:10104000BB1FEE1FFF1FA217B307E407F50720F031
:10105000A21BB30BE40BF50B661F771F881F991FAC
:101060001A9469F760957095809590959B01AC01F5
:10107000BD01CF0108950E944F08A59F900DB49F18
:10108000900DA49F800D911D11240895EE0FFF1F58
:101090000024001C0BBE0790F691E02D0994A29F3E
:1010A000B001B39FC001A39F700D811D1124911D3C
:1010B000B29F700D811D1124911D0895F894FFCFEA
:1010C0000100020406080A0C0E01000200040008D8
:0A10D00000100040000001000400C1
:00000001FF
