S00E00006D6C6E6C69622E7372656398
S11300000C947C000C94A6000C94A6000C94A600FE
S11300100C94A6000C94A6000C94A6000C94A600C4
S11300200C94A6000C94A6000C94A6000C94A600B4
S11300300C94A6000C94A6000C94A6000C94A600A4
S11300400C94A6000C94A6000C94A6000C94A60094
S11300500C94A6000C94A6000C94A6000C94A60084
S11300600C94A6000C94A6000C94A6000C94A60074
S11300700C94A6000C94A6000C94A6000C94A60064
S11300800C94A6000C94A6000C94A6000C94A60054
S11300900C94A6000C94A6000C94A6000C94A60044
S11300A00C94A6000C94A6000C94A6000C94A60034
S11300B00C94A6000C94A6000C94A6000C94A60024
S11300C00C94A6000C94A6000C94A6000C94A60014
S11300D00C94A6000C94A6000C94A6000C94A60004
S11300E00C94A6000C94A6000C94A6000C94A600F4
S11300F00C94A600DB01E20111241FBECFEFCDBF9B
S1130100DFE7DEBF10E4A0E0B0E4E0E9FDE000E0FA
S11301100BBF02C007900D92AE30B107D9F720E4AF
S1130120AEE0B0E401C01D92A03BB207E1F710E0DD
S1130130CBE7D0E004C02197FE010E948206CA37B3
S1130140D107C9F70E94B9010C94BB060C940000B6
S11301500895DC01623059F49096EC91E770F0E078
S11301607096E80FF91F80818860808308959096C7
S11301709C9190979770E92FF0E07096EA0FFB1F1F
S11301808081877F80830895FC0161A361110DC084
S1130190508140A1477021E030E002C0220F331F9C
S11301A04A95E2F7252B20830EC0FC01408150A123
S11301B0577021E030E002C0220F331F5A95E2F756
S11301C02095242320830E94A9000895CF93DF93D0
S11301D0CDB7DEB721E2FE013596DC0101900D9228
S11301E02A95E1F72FA1FC0122A36EA10E94C4006D
S11301F0DF91CF910895FC01908180A1877021E067
S113020030E002C0220F331F8A95E2F729272083AA
S113021008951F93CF93DF93EC01162F89A18111C9
S113022006C08AA1861719F0CE010E94FB001AA30A
S1130230DF91CF911F910895FC0182A1882371F071
S1130240248180A1877030E002C0359527958A9576
S1130250E2F781E0232B69F080E00895948120A1E6
S11302602770892F90E002C0959587952A95E2F72B
S113027081700895EF92FF920F931F93CF93DF93B2
S1130280CDB7DEB7C254D109CDBFDEBF8C017B012F
S1130290019709F05AC06F3F7F4F09F056C080E2C2
S11302A0E0E2F4E0DE01929601900D928A95E1F786
S11302B023968FAD2397887F836023968FAF2397F0
S11302C01F921F928DB79EB781978DBF9EBFADB70A
S11302D0BEB7119681E2FE01B29601900D928A9505
S11302E0E1F787E890E40E94E60080E2E0E2F4E0CF
S11302F0DE01119601900D928A95E1F789A1887F1C
S1130300826089A3CDBFDEBF1F9281E08F938DB73A
S11303109EB781978DBF9EBFADB7BEB7119681E2E0
S1130320FE01319601900D928A95E1F784E690E4FE
S11303300E94E600CDBFDEBF20E032EC41E050E099
S113034063E08EE090E40E94E901012B39F4EF2090
S1130350E09421F48EE090E40E947804CE5BDF4FB9
S1130360CDBFDEBFDF91CF911F910F91FF90EF9032
S1130370089561E087E890E40E94090161E084E661
S113038090E40E94090180E090E40E948B0684E6D8
S113039090E40E941C018823D1F387E890E40E9432
S11303A0FB002FE38DE093E0215080409040E1F783
S11303B000C00000ECCF6FEF7FEF81E090E00E947F
S11303C03A0108956FEF7FEF80E090E00E943A01D8
S11303D008958F929F92AF92BF92FF920F931F93B3
S11303E0CF93DF93CDB7DEB7CD56D140CDBFDEBFBF
S11303F08C01F62E49015A0140960E94A800C801BA
S1130400C3960E94A80085E08F1508F463C2EF2DFF
S1130410F0E0FE2FEE27FF0FF85F80E1D801019096
S11304200D928A95E1F792E0F91609F4F0C09F1550
S113043038F0FF2071F0E1E0FE1609F479C029C21A
S1130440F3E0FF1609F452C184E0F81609F4BDC1C3
S113045020C280E2E0E0F4E0DE01A35BBE4F019045
S11304600D928A95E1F7C359DE4F8881CD56D1406C
S1130470887FC359DE4F8883CD56D1401F921F9287
S1130480EDB7FEB7B197EDBFFEBFADB7BEB71196DE
S113049081E2FE01E35BFE4F01900D928A95E1F744
S11304A0CE0101960E94E60083E2FE013196D80156
S11304B0509601900D928A95E1F780E2E0E0F4E035
S11304C0DE01A45DBE4F01900D928A95E1F7C45BF5
S11304D0DE4F8881CC54D140887F8160C45BDE4F7D
S11304E08883CC54D140CDBFDEBF1F9281E08F936F
S11304F0EDB7FEB7B197EDBFFEBFADB7BEB711966E
S113050081E2FE01E45DFE4F01900D928A95E1F7D0
S1130510CE0101960E94E60083E2FE013196D801E5
S1130520D39601900D928A95E1F7CDBFDEBFB1C19C
S113053080E2E0E4F4E0DE01A55FBE4F01900D929D
S11305408A95E1F7C55DDE4F8881CB52D140887F23
S1130550C55DDE4F8883CB52D1401F921F92EDB709
S1130560FEB7B197EDBFFEBFADB7BEB7119681E23E
S1130570FE01E55FFE4F01900D928A95E1F7CE01F1
S113058001960E94E60083E2FE013196D80150965E
S113059001900D928A95E1F780E2E0E4F4E0DE0157
S11305A0A651BF4F01900D928A95E1F7C65FDE4FC9
S11305B08881CA50D140887F8160C65FDE4F8883BE
S11305C0CA50D140CDBFDEBF1F9281E08F93EDB7FB
S11305D0FEB7B197EDBFFEBFADB7BEB7119681E2CE
S11305E0FE01E651FF4F01900D928A95E1F7CE018D
S11305F001960E94E60083E2FE013196D801D3966B
S113060001900D928A95E1F7CDBFDEBF42C180E231
S1130610E0EAF4E0DE01A753BF4F01900D928A9502
S1130620E1F7C751DF4F8881C95ED040887FC75149
S1130630DF4F8883C95ED0401F921F92EDB7FEB78B
S1130640B197EDBFFEBFADB7BEB7119681E2FE0113
S1130650E753FF4F01900D928A95E1F7CE01019681
S11306600E94E60083E2FE013196D8015096019083
S11306700D928A95E1F780E2E0EAF4E0DE01A85504
S1130680BF4F01900D928A95E1F7C853DF4F8881DF
S1130690C85CD040887F8160C853DF4F8883C85CC2
S11306A0D040CDBFDEBF1F9281E08F93EDB7FEB780
S11306B0B197EDBFFEBFADB7BEB7119681E2FE01A3
S11306C0E855FF4F01900D928A95E1F7CE0101960E
S11306D00E94E60083E2FE013196D801D396019090
S11306E00D928A95E1F7CDBFDEBFD3C080E2E0E290
S11306F0F4E0DE01A957BF4F01900D928A95E1F70E
S1130700C955DF4F8881C75AD040887FC955DF4F0C
S11307108883C75AD0401F921F92EDB7FEB7B19796
S1130720EDBFFEBFADB7BEB7119681E2FE01E9573A
S1130730FF4F01900D928A95E1F7CE0101960E9438
S1130740E60083E2FE013196D801509601900D92A5
S11307508A95E1F780E2E0E2F4E0DE01AA59BF4FB6
S113076001900D928A95E1F7CA57DF4F8881C658E8
S1130770D040887F8160CA57DF4F8883C658D040F5
S1130780CDBFDEBF1F9281E08F93EDB7FEB7B19767
S1130790EDBFFEBFADB7BEB7119681E2FE01EA59C7
S11307A0FF4F01900D928A95E1F7CE0101960E94C8
S11307B0E60083E2FE013196D801D39601900D92B2
S11307C08A95E1F7CDBFDEBF64C080E2E0E8F4E0E3
S11307D0DE01AB5BBF4F01900D928A95E1F7A696BF
S11307E08FADA697887FA6968FAFA6971F921F926C
S11307F0EDB7FEB7B197EDBFFEBFADB7BEB711966B
S113080081E2FE01EB5BFF4F01900D928A95E1F7C7
S1130810CE0101960E94E60083E2FE013196D801E2
S1130820509601900D928A95E1F780E2E0E8F4E0B9
S1130830DE01949601900D928A95E1F725968FAD8D
S11308402597887F816025968FAF2597CDBFDEBF22
S11308501F9281E08F93EDB7FEB7B197EDBFFEBF56
S1130860ADB7BEB7119681E2FE01B49601900D9228
S11308708A95E1F7CE0101960E94E60083E2FE012B
S11308803196D801D39601900D928A95E1F7CDBFA8
S1130890DEBFC501B4010E94870520E030E040E8D6
S11308A051E40E9415069B01AC0160E074E284E708
S11308B09DE40E94E60420E030E040E05FE30E9413
S11308C07A040E945805F8016087718780E885835F
S11308D080EC8683C359DE4FCDBFDEBFDF91CF915D
S11308E01F910F91FF90BF90AF909F908F900895AC
S11308F008955058BB27AA270E9491040C94DB0545
S11309000E94CD0538F00E94D40520F039F49F3FB1
S113091019F426F40C94CA050EF4E095E7FB0C9444
S1130920C405E92F0E94EC0558F3BA176207730750
S11309308407950720F079F4A6F50C940E060EF4BE
S1130940E0950B2EBA2FA02D0B01B90190010C01DB
S1130950CA01A0011124FF27591B99F0593F50F4F3
S1130960503E68F11A16F040A22F232F342F44274B
S1130970585FF3CF469537952795A795F040539543
S1130980C9F77EF41F16BA0B620B730B840BBAF013
S11309909150A1F0FF0FBB1F661F771F881FC2F77E
S11309A00EC0BA0F621F731F841F48F48795779592
S11309B06795B795F7959E3F08F0B0CF9395880F4C
S11309C008F09927EE0F9795879508950E94FA04E9
S11309D00C94DB050E94D40558F00E94CD0540F02C
S11309E029F45F3F29F00C94C40551110C940F06AF
S11309F00C94CA050E94EC0568F39923B1F35523BE
S1130A0091F3951B550BBB27AA276217730784071D
S1130A1038F09F5F5F4F220F331F441FAA1FA9F3B3
S1130A2035D00E2E3AF0E0E832D091505040E695A1
S1130A30001CCAF72BD0FE2F29D0660F771F881F02
S1130A40BB1F261737074807AB07B0E809F0BB0BF5
S1130A50802DBF01FF2793585F4F3AF09E3F510509
S1130A6078F00C94C4050C940F065F3FE4F3983EB1
S1130A70D4F3869577956795B795F7959F5FC9F7F2
S1130A80880F911D9695879597F90895E1E0660F73
S1130A90771F881FBB1F621773078407BA0720F0EC
S1130AA0621B730B840BBA0BEE1F88F7E095089555
S1130AB00E94F40588F09F5798F0B92F9927B751F1
S1130AC0B0F0E1F0660F771F881F991F1AF0BA95EE
S1130AD0C9F714C0B13091F00E940E06B1E0089538
S1130AE00C940E06672F782F8827B85F39F0B93F2A
S1130AF0CCF3869577956795B395D9F73EF49095A1
S1130B008095709561957F4F8F4F9F4F0895E8941E
S1130B1009C097FB3EF490958095709561957F4F41
S1130B208F4F9F4F9923A9F0F92F96E9BB279395EF
S1130B30F695879577956795B795F111F8CFFAF4FF
S1130B40BB0F11F460FF1BC06F5F7F4F8F4F9F4F30
S1130B5016C0882311F096E911C0772321F09EE88E
S1130B60872F762F05C0662371F096E8862F70E0F4
S1130B7060E02AF09A95660F771F881FDAF7880FCE
S1130B809695879597F9089597F99F6780E870E09F
S1130B9060E008959FEF80EC089500240A941616EF
S1130BA0170618060906089500240A941216130657
S1130BB0140605060895092E0394000C11F48823E5
S1130BC052F0BB0F40F4BF2B11F460FF04C06F5F01
S1130BD07F4F8F4F9F4F089557FD9058440F551FD7
S1130BE059F05F3F71F04795880F97FB991F61F0AB
S1130BF09F3F79F087950895121613061406551F22
S1130C00F2CF4695F1DF08C0161617061806991F8D
S1130C10F1CF86957105610508940895E894BB2782
S1130C2066277727CB0197F908950E9428060C942C
S1130C30DB050E94CD0538F00E94D40520F09523F1
S1130C4011F00C94C4050C94CA0511240C940F06DD
S1130C500E94EC0570F3959FC1F3950F50E0551F6A
S1130C60629FF001729FBB27F00DB11D639FAA27FD
S1130C70F00DB11DAA1F649F6627B00DA11D661F4C
S1130C80829F2227B00DA11D621F739FB00DA11D6D
S1130C90621F839FA00D611D221F749F3327A00D27
S1130CA0611D231F849F600D211D822F762F6A2FC3
S1130CB011249F5750409AF0F1F088234AF0EE0F28
S1130CC0FF1FBB1F661F771F881F91505040A9F755
S1130CD09E3F510580F00C94C4050C940F065F3FB1
S1130CE0E4F3983ED4F3869577956795B795F79591
S1130CF0E7959F5FC1F7FE2B880F911D9695879509
S1130D0097F90895EE0FFF1F0024001C0BBE0790F7
S1130D10F691E02D09940F931F93CF93DF93E09105
S1130D20AC40F091AD40238121FF1BC08C01D0E089
S1130D30C0E0F80181918F016091AC407091AD40A9
S1130D40DB011896ED91FC911997882331F00995F0
S1130D50892B79F3DFEFCFEFECCF8AE00995892B6C
S1130D6019F08FEF9FEF02C08D2F9C2FDF91CF9151
S1130D701F910F91089510E0CBE7D0E004C0FE016D
S1130D800E9482062196CC37D107C9F7F894FFCF89
S1110D9048656C6C6F2C20776F726C642100C8
S9030000FC
