S00E00006D6C6E6C69622E7372656398
S11300000C947B000C94A5000C94A5000C94A50002
S11300100C94A5000C94A5000C94A5000C94A500C8
S11300200C94A5000C94FE040C94A5000C94A5005B
S11300300C94A5000C94A5000C94A5000C94A500A8
S11300400C94A5000C94A5000C94A5000C94A50098
S11300500C94A5000C94A5000C94A5000C94A50088
S11300600C94A5000C94A5000C94A5000C94A50078
S11300700C94A5000C94A5000C94A5000C94A50068
S11300800C94A5000C94A5000C94A5000C94A50058
S11300900C94A5000C94A5000C94A5000C94A50048
S11300A00C94A5000C94A5000C94A5000C94A50038
S11300B00C94A5000C94A5000C94A5000C94310597
S11300C00C94A5000C94A5000C94A5000C94A50018
S11300D00C94A5000C9454070C94A5000C94A50052
S11300E00C94A5000C94A5000C94A5000C94A500F8
S11300F00C94A500900311241FBECFEFCDBFDFE702
S1130100DEBF10E4A0E0B0E4E8E6F9E100E00BBFF4
S113011002C007900D92A034B107D9F720E4A0E4FF
S1130120B0E401C01D92A13BB207E1F710E0CBE7B8
S1130130D0E004C02197FE010E94C409CA37D10748
S1130140C9F70E9432030C94B20C0C9400008F92F5
S11301509F92AF92BF92CF92DF92EF92FF920F9352
S1130160CF93DF93CDB7DEB76297CDBFDEBF5C011F
S11301704B012D873E874F87E88AF98A0A8B0E94B4
S11301801204650187E0C80ED11CC6010E94EF016C
S11301902D853E854F85B401CE0106960E949703B6
S11301A087E0FE013696D50101900D928A95E1F71C
S11301B000E020E0488959896A89CE0101960E94AD
S11301C02D0285E0FE013196D60101900D928A95AB
S11301D0E1F7C6010E9438026296CDBFDEBFDF910F
S11301E0CF910F91FF90EF90DF90CF90BF90AF90A1
S11301F09F908F900895FC0164870895CF93DF93B7
S1130200EC01852F50E8659FB00111249C8550E2D4
S1130210959F90011124562F522B582B50615D87C6
S11302204E87BE01635F7F4F42E0CE010E941604F9
S11302302796CE010E945602CE010E943802DF9119
S1130240CF910895DC01ED91FC9180818170089536
S1130250DC01ED91FC91858581700895DC01ED91BF
S1130260FC91808991892181243010F4218102C07C
S113027024E030E002C0969587952A95E2F7089528
S1130280CF93DF93EC0102960E94EF01E0E0F6E0E9
S1130290E883F98380E48087DF91CF910895DC01BE
S11302A0ED91FC918081679566276795682B616065
S11302B060830895CF92DF92EF92FF920F931F9382
S11302C0CF93DF93CDB7DEB72597CDBFDEBFE42E46
S11302D0F52E20E6E21624E0F20651F0A0E8EA1634
S11302E0A4E0FA0629F0B0EAEB16B4E0FB0639F50F
S11302F0162F6C0100E021E0CE0101960E942D0230
S113030085E0FE013196D601129601900D928A95F0
S1130310E1F7D601ED91FC91B0E6EB1AB4E0FB0AEB
S1130320F594E794F594E794F594E794F594E794B9
S1130330F594E794EE0CEE0CEE0CE10EE0862596B7
S1130340CDBFDEBFDF91CF911F910F91FF90EF9052
S1130350DF90CF900895DC01ED91FC9160870895C2
S1130360DC01ED91FC91828580FD02C081E08287F1
S11303700895CF93DF93EC010E945A01CE010E94AD
S11303802201882361F0CE010E94B001CE010E94B7
S113039028018823D9F3CE010E942E0102C08FEFD9
S11303A09FEFDF91CF910895CF93DF93EC010E94EB
S11303B0AB01CE010E942201882361F0CE010E948C
S11303C0B001CE010E9428018823D9F3CE010E94F6
S11303D02E0102C08FEF9FEFDF91CF910895089512
S11303E0FC01208131818281E82FF0E07096E20FD8
S11303F0F31F623021F480818860808308958081B6
S1130400877F80830895DC0113966C9313976111A1
S113041010C0ED91FC911197408121E030E01296DB
S11304200C9002C0220F331F0A94E2F7242B20837E
S113043011C0DC01ED91FC911197408121E030E085
S113044012960C9002C0220F331F0A94E2F72095F3
S1130450242320830E94F00108950F93FC0140831C
S1130460518362830483622F0E9403020F910895D3
S1130470FC018481882369F0A081B18181E090E04E
S1130480028002C0880F991F0A94E2F716968C9393
S11304900895A081B18181E090E0028002C0880FBC
S11304A0991F0A94E2F715968C930895FC018481B0
S11304B0882369F0A081B18181E090E0028002C0CC
S11304C0880F991F0A94E2F715968C930895A081DA
S11304D0B18181E090E0028002C0880F991F0A94E4
S11304E0E2F716968C930895DC01ED91FC91119737
S11304F0448121E030E0C90112960C9002C0880FBB
S1130500991F0A94E2F7842784830895EF92FF9257
S11305100F931F93CF93DF93CDB7DEB7A097CDBFD3
S1130520DEBF83E690E40E94740268E482E490E40F
S11305300E94D401F82EE92E40E654E061E082E402
S113054090E40E94B901182F092F40E654E060E0BE
S113055082E490E40E94B901EF92FF920F931F93FB
S11305609F938F9380E090E49F938F930E94EA0976
S1130570809140409091414040969F7080934040CC
S113058090934140969587959695879500249695E6
S113059087950794969587950794982F802D809337
S11305A0A2069093A30688E690E40E944C07CDBF70
S11305B0DEBF8823A1F08E010F5F1F4FB80188E6CC
S11305C090E40E94C6061F930F9388E190E49F93E2
S11305D08F930E94EA090F900F900F900F90A096AE
S11305E0CDBFDEBFDF91CF911F910F91FF90EF90B0
S11305F00895EF92FF920F93019781F56F3F7F4F1C
S113060069F520E032EC41E050E063E088E690E4F4
S11306100E946D0600E020E040E254E063E083E6DF
S113062090E40E942D024AEF50E060E08BE590E4F4
S11306300E946E046894EE24E6F86894FF24F2F8AD
S113064003E020E434E047E060E479E08BE490E404
S11306500E94A70082E490E40E9440010F91FF9061
S1130660EF90089581E080935A40C9E4D0E48883F0
S1130670198266E872E08BE590E40E94E5048091BB
S11306805A4020E8829FC00111248160E0EBF0E031
S11306908283808361E08BE490E40E94FB0061E04C
S11306A082E490E40E944F01E0EAF6E080818160F8
S11306B080838981882321F080818064808305C0C0
S11306C0E0EAF6E080818F7B808380914940882333
S11306D031F0E0EAF6E080818068808305C0E0EADA
S11306E0F6E080818F7780838BE590E40E94F704A5
S11306F07894409140405091414060E08BE490E414
S11307000E94FE0080914040909141404FEF5FE095
S1130710481B590B61E08BE490E40E94FE00E9CF92
S11307206FEF7FEF81E090E00E94F90208956F92ED
S11307307F928F92CF92DF92EF92FF920F931F934B
S1130740CF93DF93CDB7DEB76497CDBFDEBF7C0117
S11307508B013901842E6C0122E0C20ED11CC6012A
S11307600E94EF01D7010D931C9300E020E0682D57
S1130770A301CE0140960E942D0285E0FE017096F1
S1130780D60101900D928A95E1F7F701808191815C
S11307908034994021F440E054E064E003C040E434
S11307A054E060E000E020E0CE010B960E942D02B0
S11307B0D7018D919C918034994021F440E054E01C
S11307C065E003C040E454E061E000E021E0CE01D4
S11307D006960E942D02F701808191818034994010
S11307E021F440E054E066E003C040E454E062E0F9
S11307F000E020E0CE0101960E942D02D701ED9188
S1130800FC9181E380836496CDBFDEBFDF91CF91FD
S11308101F910F91FF90EF90DF90CF908F907F907A
S11308206F90089502960E94EF010895CF92DF928F
S1130830EF92FF921F93CF93DF93EC017B01142F70
S11308406C0182E0C80ED11CC6010E9456029FEFC3
S1130850910F112369F0E881F981D7018D917D0110
S11308608483E881F98183818823DCF7192FEFCF12
S1130870C6010E943802DF91CF911F91FF90EF9043
S1130880DF90CF9008950F931F93CF938C01C0E016
S1130890EC2FF0E0EE0FFF1FE15DFF4BA081B18173
S11308A028E13CEF47EE53E00E94B90920E039E02B
S11308B04DE350E00E949709C801A0E0B0E028177A
S11308C039074A075B0728F4CF5FC83009F78FEF71
S11308D001C08C2FCF911F910F9108958F929F92F9
S11308E0AF92BF92FF920F931F93CF93DF93EC01CC
S11308F08A01611105C080E09AE08883998304C06D
S113090080E49AE088839983C8010E94430490E0BC
S1130910FC01E95DFF4BF080880F991FFC01E15D4C
S1130920FF4BA081B18128E13CEF47EE53E00E94E8
S1130930B90920E039E04DE350E00E949709CA016B
S1130940B9010E949C084B015C01B80180E090E071
S11309500E949C08A50194010E94FB0720E03FEF40
S11309604FE757E40E942A090E946D08E881F98143
S113097021E02287E881F98166A377A3E881F981E0
S113098020E82083E881F9812081F22AF08280E046
S113099090E00E949C0820E03FEF4FE757E40E945C
S11309A0FB079B01AC01C501B4010E942A096A83BB
S11309B07B838C839D83DF91CF911F910F91FF9057
S11309C0BF90AF909F908F900895FC0166837783CA
S11309D02081318121153A4029F48093A7409093D6
S11309E0A84008958093A5409093A6400895DC0103
S11309F0ED91FC9180818160808308951F920F9214
S1130A000FB60F9211240BB60F922F933F934F936F
S1130A105F936F937F938F939F93AF93BF93EF9362
S1130A20FF93E091A740F091A8400680F781E02D64
S1130A30309709F0099581E080930B0AFF91EF91BB
S1130A40BF91AF919F918F917F916F915F914F91E2
S1130A503F912F910F900BBE0F900FBE0F901F90E0
S1130A6018951F920F920FB60F9211240BB60F9286
S1130A702F933F934F935F936F937F938F939F93A2
S1130A80AF93BF93EF93FF93E091A540F091A640FD
S1130A900680F781E02D309709F0099581E0809375
S1130AA04B0AFF91EF91BF91AF919F918F917F91ED
S1130AB06F915F914F913F912F910F900BBE0F90CB
S1130AC00FBE0F901F901895823059F018F48130A2
S1130AD089F004C0833041F0843049F080E098E02C
S1130AE0089580E498E0089580E698E0089580E809
S1130AF098E0089580E298E00895EF92FF920F93B2
S1130B00CF93DF93CDB7DEB7E297CDBFDEBF7C01D5
S1130B10623009F455C028F4662351F0613061F164
S1130B20BAC0633009F470C0643009F491C0B3C032
S1130B3000E020E040E054E060E0CE018E960E94A8
S1130B402D0285E0FE01BE96D701129601900D920A
S1130B508A95E1F721E040E054E061E0CE01899616
S1130B600E942D0285E0FE01B996D70117960190E7
S1130B700D928A95E1F78FC000E020E040E454E054
S1130B8060E0CE0184960E942D0285E0FE01B496B9
S1130B90D701129601900D928A95E1F721E040E485
S1130BA054E061E0CE014F960E942D0285E0FE01E3
S1130BB07F96D701179601900D928A95E1F76BC045
S1130BC000E020E040EA54E060E0CE014A960E9452
S1130BD02D0285E0FE017A96D701129601900D92BE
S1130BE08A95E1F721E040EA54E061E0CE014596C0
S1130BF00E942D0285E0FE017596D701179601909B
S1130C000D928A95E1F747C000E020E040E254E00D
S1130C1060E0CE0140960E942D0285E0FE017096B0
S1130C20D701129601900D928A95E1F721E040E2F6
S1130C3054E061E0CE010B960E942D0285E0FE0196
S1130C403B96D701179601900D928A95E1F723C040
S1130C5000E020E040E854E060E0CE0106960E9407
S1130C602D0285E0FE013696D701129601900D9271
S1130C708A95E1F721E040E854E061E0CE01019675
S1130C800E942D0285E0FE013196D701179601904E
S1130C900D928A95E1F7E296CDBFDEBFDF91CF9149
S1130CA00F91FF90EF900895FC018093A9409093D9
S1130CB0AA4086E297E087AB90AF84E097E085ABEB
S1130CC096AB83E080ABBD96ABEAB0E41296ED93AD
S1130CD0FC931397ED93FC930895CF92DF92EF92D8
S1130CE0FF920F931F93CF93DF93EC01162F6901AB
S1130CF07A0102960E94EF01CE0107960E94EF014D
S1130D001630D8F5FE013C9680E2DF011D928A95EB
S1130D10E9F71CA6812F0E94640588839983612FBB
S1130D20CE010E947D0508811981C701B6010E9488
S1130D309C0820E030E040E851E40E942A099B012D
S1130D40AC0160E074E284E79DE40E94FB0720E0CC
S1130D5030E040E05FE30E948F070E946D08F801D5
S1130D6060877187E881F98180E88583E881F9816A
S1130D7080EC8683CE010E945406DF91CF911F91AF
S1130D800F91FF90EF90DF90CF9008950F931F93F2
S1130D90CF93DF938C01CB01E8012C9620E230E065
S1130DA040E050E0BE010E94DC09F80114A680E294
S1130DB0FE0111928A95E9F7DF91CF911F910F916E
S1130DC00895DC01DB96ED91FC91DC97099508957B
S1130DD0DC01ED91FC91848182958695877091E088
S1130DE08927817008951F93CF93DF93EC01162F09
S1130DF0CE010E94E8068111FBCFE881F9811283BC
S1130E00DF91CF911F910895682F8091A94090910F
S1130E10AA400E94F30680E090E00895DC01ED9181
S1130E20FC9184818095881F8827881F0895CF931B
S1130E30DF93EC01CE010E940E078111FBCFE88104
S1130E40F98181818081DF91CF9108958091A940BA
S1130E509091AA400E94170790E008950F931F9362
S1130E60CF93DF93EC010CA510E00E941707FE015D
S1130E70E00FF11F84878CA590E001968F71907824
S1130E80992324F40197806E9F6F01968CA7DF91BC
S1130E90CF911F910F91089521E0FC0184A5811148
S1130EA001C020E0822F08951F920F920FB60F9277
S1130EB011240BB60F922F933F934F935F936F932D
S1130EC07F938F939F93AF93BF93EF93FF938091FF
S1130ED0A9409091AA400E942E078091A940909128
S1130EE0AA400E940E07811106C08091A9409091EA
S1130EF0AA400E94E106FF91EF91BF91AF919F91AB
S1130F008F917F916F915F914F913F912F910F90AE
S1130F100BBE0F900FBE0F901F9018955058BB2713
S1130F20AA270E94A6070C94F0080E94E20838F051
S1130F300E94E90820F039F49F3F19F426F40C9438
S1130F40DF080EF4E095E7FB0C94D908E92F0E9422
S1130F50010958F3BA17620773078407950720F04D
S1130F6079F4A6F50C9423090EF4E0950B2EBA2F10
S1130F70A02D0B01B90190010C01CA01A00111249B
S1130F80FF27591B99F0593F50F4503E68F11A1647
S1130F90F040A22F232F342F4427585FF3CF4695D8
S1130FA037952795A795F0405395C9F77EF41F16FA
S1130FB0BA0B620B730B840BBAF09150A1F0FF0FC4
S1130FC0BB1F661F771F881FC2F70EC0BA0F621FB0
S1130FD0731F841F48F4879577956795B795F795A0
S1130FE09E3F08F0B0CF9395880F08F09927EE0F35
S1130FF09795879508950E940F080C94F0080E9415
S1131000E90858F00E94E20840F029F45F3F29F013
S11310100C94D90851110C9424090C94DF080E94F3
S1131020010968F39923B1F3552391F3951B550BEB
S1131030BB27AA2762177307840738F09F5F5F4FA7
S1131040220F331F441FAA1FA9F335D00E2E3AF0E6
S1131050E0E832D091505040E695001CCAF72BD0FE
S1131060FE2F29D0660F771F881FBB1F261737074F
S11310704807AB07B0E809F0BB0B802DBF01FF2781
S113108093585F4F3AF09E3F510578F00C94D9087D
S11310900C9424095F3FE4F3983ED4F38695779546
S11310A06795B795F7959F5FC9F7880F911D96953A
S11310B0879597F90895E1E0660F771F881FBB1F96
S11310C0621773078407BA0720F0621B730B840B43
S11310D0BA0BEE1F88F7E09508950E94090988F07D
S11310E09F5798F0B92F9927B751B0F0E1F0660FE8
S11310F0771F881F991F1AF0BA95C9F714C0B13029
S113110091F00E942309B1E008950C942309672FFC
S1131110782F8827B85F39F0B93FCCF38695779557
S11311206795B395D9F73EF4909580957095619540
S11311307F4F8F4F9F4F0895E89409C097FB3EF46B
S113114090958095709561957F4F8F4F9F4F992310
S1131150A9F0F92F96E9BB279395F695879577958E
S11311606795B795F111F8CFFAF4BB0F11F460FF4E
S11311701BC06F5F7F4F8F4F9F4F16C0882311F0A6
S113118096E911C0772321F09EE8872F762F05C0BA
S1131190662371F096E8862F70E060E02AF09A9555
S11311A0660F771F881FDAF7880F9695879597F94A
S11311B0089597F99F6780E870E060E008959FEFD5
S11311C080EC089500240A941616170618060906DA
S11311D0089500240A9412161306140605060895A9
S11311E0092E0394000C11F4882352F0BB0F40F431
S11311F0BF2B11F460FF04C06F5F7F4F8F4F9F4F71
S1131200089557FD9058440F551F59F05F3F71F0F2
S11312104795880F97FB991F61F09F3F79F0879559
S11312200895121613061406551FF2CF4695F1DFE2
S113123008C0161617061806991FF1CF8695710572
S1131240610508940895E894BB2766277727CB01A6
S113125097F908950E943D090C94F0080E94E20851
S113126038F00E94E90820F0952311F00C94D90875
S11312700C94DF0811240C9424090E94010970F3D2
S1131280959FC1F3950F50E0551F629FF001729F27
S1131290BB27F00DB11D639FAA27F00DB11DAA1F36
S11312A0649F6627B00DA11D661F829F2227B00D83
S11312B0A11D621F739FB00DA11D621F839FA00D0E
S11312C0611D221F749F3327A00D611D231F849F5E
S11312D0600D211D822F762F6A2F11249F575040B5
S11312E09AF0F1F088234AF0EE0FFF1FBB1F661F30
S11312F0771F881F91505040A9F79E3F510580F0F9
S11313000C94D9080C9424095F3FE4F3983ED4F379
S1131310869577956795B795F795E7959F5FC1F79C
S1131320FE2B880F911D9695879597F90895A1E254
S11313301A2EAA1BBB1BFD010DC0AA1FBB1FEE1F4B
S1131340FF1FA217B307E407F50720F0A21BB30B96
S1131350E40BF50B661F771F881F991F1A9469F712
S113136060957095809590959B01AC01BD01CF016E
S113137008950E94CD09A59F900DB49F900DA49F40
S1131380800D911D11240895EE0FFF1F0024001CF1
S11313900BBE0790F691E02D0994A29FB001B39F74
S11313A0C001A39F700D811D1124911DB29F700D6A
S11313B0811D1124911D0895FB01DC012150304051
S11313C030F001900D920416C9F7CD0108958827D5
S11313D099270895CF93DF93CDB7DEB7AE014B5F66
S11313E05F4FFA0161917191AF018091AD4090918D
S11313F0AE400E94FE09DF91CF9108952F923F9253
S11314004F925F926F927F928F929F92AF92BF9210
S1131410CF92DF92EF92FF920F931F93CF93DF93BC
S1131420CDB7DEB72B97CDBFDEBF6C017B018A0140
S1131430FC0116821782838181FFCCC1CE01019603
S11314403C01F6019381F70193FD859193FF81910E
S11314507F01882309F4BAC1853239F493FD85915B
S113146093FF81917F01853229F4B60190E00E94B7
S1131470180CE7CF912C212C312CFFE1F315D8F077
S11314808B3279F038F4803279F08332A1F4232D51
S113149020611DC08D3261F0803369F4232D2160F9
S11314A016C0832D8260382EE32DE4603E2E2AC0C0
S11314B0F32DF8601DC037FC2DC020ED280F2A3015
S11314C040F08E32B9F436FC81C1232D2064322ED3
S11314D019C036FE06C08AE0989E200D1124922E73
S11314E011C0EAE02E9E200D1124222EF32DF0626D
S11314F03F2E08C08C3621F4832D8068382E02C01C
S1131500883641F4F70193FD859193FF81917F0122
S11315108111B3CF982F9F7D9554933028F40C5F9D
S11315201F4F9FE399830DC0833631F0833771F0E9
S1131530833509F059C021C0F801808189830E5F89
S11315401F4F88248394912C530113C02801F2E087
S11315504F0E511CF801A080B18036FE03C0692DE6
S113156070E002C06FEF7FEFC5010E940D0C4C01CB
S11315708201F32DFF773F2E16C0280122E0420E90
S1131580511CF801A080B18036FE03C0692D70E0C3
S113159002C06FEF7FEFC5010E94020C4C01F32DD6
S11315A0F0683F2E820133FC1BC0822D90E0881628
S11315B09906B0F4B60180E290E00E94180C2A94D7
S11315C0F4CFF50137FC859137FE81915F01B601B7
S11315D090E00E94180C21102A9421E0821A9108AC
S11315E08114910471F7E8C0843611F0893641F50D
S11315F0F80137FE07C060817181828193810C5F9D
S11316001F4F08C060817181072E000C880B990B55
S11316100E5F1F4FF32DFF763F2E97FF09C0909565
S11316208095709561957F4F8F4F9F4FF0683F2E47
S11316302AE030E0A3010E94540C882E861845C08D
S1131640853731F4232D2F7EB22E2AE030E025C0D9
S1131650932D997FB92E8F36C1F018F4883579F01F
S1131660B5C0803719F0883721F0B0C0E92FE061A8
S1131670BE2EB4FE0DC0FB2DF460BF2E09C034FE97
S11316800AC0292F2660B22E06C028E030E005C02B
S113169020E130E002C020E132E0F801B7FE07C0EB
S11316A060817181828193810C5F1F4F06C06081CC
S11316B0718180E090E00E5F1F4FA3010E94540CE3
S11316C0882E8618FB2DFF773F2E36FE0DC0232D66
S11316D02E7FA22E891458F434FE0BC032FC09C0AC
S11316E0832D8E7EA82E05C0B82CA32C03C0B82C45
S11316F001C0B92CA4FE0FC0FE01E80DF11D8081CC
S1131700803321F49A2D997EA92E09C0A2FE06C029
S1131710B394B39404C08A2D867809F0B394A3FCDF
S113172011C0A0FE06C0B21488F4280C922C9B1899
S11317300EC0B21460F4B60180E290E00E94180C6E
S1131740B394F7CFB21418F42B1802C0982C212CA0
S1131750A4FE10C0B60180E390E00E94180CA2FE23
S113176017C0A1FC03C088E790E002C088E590E0C0
S1131770B6010CC08A2D867859F0A1FE02C08BE216
S113178001C080E2A7FC8DE2B60190E00E94180C33
S1131790891438F4B60180E390E00E94180C9A94FE
S11317A0F7CF8A94F301E80DF11D8081B60190E032
S11317B00E94180C8110F5CF222009F442CEB60104
S11317C080E290E00E94180C2A94F6CFF6018681FC
S11317D0978102C08FEF9FEF2B96CDBFDEBFDF91C5
S11317E0CF911F910F91FF90EF90DF90CF90BF901A
S11317F0AF909F908F907F906F905F904F903F90AD
S11318002F900895FC010590615070400110D8F7A5
S1131810809590958E0F9F1F0895FC016150704034
S113182001900110D8F7809590958E0F9F1F089511
S11318300F931F93CF93DF93FB01238121FD03C0FB
S11318408FEF9FEF2CC022FF16C046815781248161
S113185035814217530744F4A081B1819D012F5F64
S11318603F4F208331838C93268137812F5F3F4FF5
S11318702683378314C08B01EC01FB010084F185BE
S1131880E02D0995892BE1F6D80116968D919C914E
S11318901797019616968D939C931797CE01DF9117
S11318A0CF911F910F910895FA01AA27283051F181
S11318B0203181F1E8946F936E7F6E5F7F4F8F4F7D
S11318C09F4FAF4FB1E03ED0B4E03CD0670F781FDC
S11318D0891F9A1FA11D680F791F8A1F911DA11DC1
S11318E06A0F711D811D911DA11D20D009F46894FA
S11318F03F912AE0269F11243019305D3193DEF6A2
S1131900CF010895462F4770405D4193B3E00FD057
S1131910C9F7F6CF462F4F70405D4A3318F0495D42
S113192031FD4052419302D0A9F7EACFB4E0A69525
S11319309795879577956795BA95C9F70097610547
S1131940710508959B01AC010A2E0694579547959D
S113195037952795BA95C9F7620F731F841F951F92
S10B1960A01D0895F894FFCFC7
S113196841203D2025750942203D202575096461E3
S113197863203D2025750A005265636569766564B0
S113198820272573270A0000020406080A0C0E0102
S113199800020004000800100040000001000400D8
S9030000FC
