:100000000C947B000C9498000C9498000C9498002D
:100010000C9498000C9498000C9498000C94980000
:100020000C9498000C9498000C9498000C949800F0
:100030000C9498000C9498000C9498000C949800E0
:100040000C9498000C9498000C9498000C949800D0
:100050000C9498000C9498000C9498000C949800C0
:100060000C9498000C9498000C9498000C949800B0
:100070000C9498000C9498000C9498000C949800A0
:100080000C9498000C9498000C9498000C94980090
:100090000C9498000C9498000C9498000C94980080
:1000A0000C9498000C9498000C9498000C94980070
:1000B0000C9498000C9498000C9498000C94980060
:1000C0000C9498000C9498000C9498000C94980050
:1000D0000C9498000C9498000C9498000C94980040
:1000E0000C9498000C9498000C9498000C94980030
:1000F0000C949800AC0111241FBECFEFCDBFDFE7F9
:10010000DEBF20E4A0E0B0E401C01D92A634B20737
:10011000E1F710E0CBE7D0E004C02197FE010E9498
:10012000B301CA37D107C9F70E948E010C94BC01F4
:100130000C940000DC01623059F49096EC91E77069
:10014000F0E07096E80FF91F808188608083089541
:1001500090969C9190979770E92FF0E07096EA0F37
:10016000FB1F8081877F80830895FC0161A361115B
:100170000DC0508140A1477021E030E002C0220F45
:10018000331F4A95E2F7252B20830EC0FC014081E6
:1001900050A1577021E030E002C0220F331F5A9562
:1001A000E2F72095242320830E949A000895CF939C
:1001B000DF93CDB7DEB721E2FE013596DC01019079
:1001C0000D922A95E1F72FA1FC0122A36EA10E94B6
:1001D000B500DF91CF910895FC01908180A18770D7
:1001E00021E030E002C0220F331F8A95E2F7292771
:1001F000208308951F93CF93DF93EC01162F89A1DD
:10020000811106C08AA1861719F0CE010E94EC0068
:100210001AA3DF91CF911F910895FC0182A1882339
:1002200071F0248180A1877030E002C03595279558
:100230008A95E2F781E0232B69F080E008959481AC
:1002400020A12770892F90E002C0959587952A9567
:10025000E2F781700895CF93DF93CDB7DEB7C25434
:10026000D109CDBFDEBF019709F051C06F3F7F4F6D
:1002700009F04DC080E2E0E2F4E0DE0192960190E8
:100280000D928A95E1F723968FAD2397887F83603F
:1002900023968FAF23971F921F928DB79EB781979A
:1002A0008DBF9EBFADB7BEB7119681E2FE01B2967B
:1002B00001900D928A95E1F783E290E40E94D700C5
:1002C00080E2E0E2F4E0DE01119601900D928A9561
:1002D000E1F789A1887F826089A3CDBFDEBF1F922D
:1002E00081E08F938DB79EB781978DBF9EBFADB7CD
:1002F000BEB7119681E2FE01319601900D928A956A
:10030000E1F780E090E40E94D700CDBFDEBFCE5B76
:10031000DF4FCDBFDEBFDF91CF91089561E083E273
:1003200090E40E94FA0061E080E090E40E94FA000C
:1003300080E090E40E940D018823D1F383E290E4F1
:100340000E94EC002FE38DE093E02150804090402C
:10035000E1F700C00000ECCF6FEF7FEF81E090E0AD
:100360000E942B010895EE0FFF1F0024001C0BBEFE
:0C0370000790F691E02D0994F894FFCF5F
:00000001FF
