:100000000C947C000C9499000C9499000C94990029
:100010000C9499000C9499000C9499000C949900FC
:100020000C9499000C9499000C9499000C949900EC
:100030000C9499000C9499000C9499000C949900DC
:100040000C9499000C9499000C9499000C949900CC
:100050000C9499000C9499000C9499000C949900BC
:100060000C9499000C9499000C9499000C949900AC
:100070000C9499000C9499000C9499000C9499009C
:100080000C9499000C9499000C9499000C9499008C
:100090000C9499000C9499000C9499000C9499007C
:1000A0000C9499000C9499000C9499000C9499006C
:1000B0000C9499000C9499000C9499000C9499005C
:1000C0000C9499000C9499000C9499000C9499004C
:1000D0000C9499000C9499000C9499000C9499003C
:1000E0000C9499000C9499000C9499000C9499002C
:1000F0000C9499001201250111241FBECFEFCDBF32
:10010000DFE7DEBF20E4A0E0B0E401C01D92A23E24
:10011000B207E1F710E0CCE7D0E004C02197FE0180
:100120000E942C01CA37D107C9F70E9424010C9400
:1001300035010C9400000197C9F56F3F7F4FB1F571
:1001400080E2E0E0F4E0A0E0B0E401900D928A9556
:10015000E1F780E2E0E4F4E0A0E2B0E401900D9287
:100160008A95E1F780E2E0E6F4E0A0E4B0E40190F3
:100170000D928A95E1F780E2E0E2F4E0A0E6B0E4D7
:1001800001900D928A95E1F780E2E0E8F4E0A0E8C2
:10019000B0E401900D928A95E1F780E2E0EAF4E0A4
:1001A000A0EAB0E401900D928A95E1F70895669572
:1001B0006695669520E2629FF0011124E050F04CB4
:1001C00020E2DC0101900D922A95E1F708958770F5
:1001D0000895FF920F931F93CF93DF93CDB7DEB7B0
:1001E000A097CDBFDEBF8C01F62EFC016083CE014F
:1001F00001960E94D70080E2FE013196D801119647
:1002000001900D928A95E1F78F2D0E94E700F80189
:1002100081A3A096CDBFDEBFDF91CF911F910F913B
:10022000FF9008956FEF7FEF81E090E00E949B00C8
:100230000895019741F46F3F7F4F29F46BE080EC04
:1002400090E40E94E9000895FFCF6FEF7FEF81E017
:1002500090E00E9419010895EE0FFF1F0024001C7A
:0E0260000BBE0790F691E02D0994F894FFCFA5
:00000001FF
